{
  "_format": "hh3-artifact-1",
  "contractName": "Sponsors",
  "sourceName": "contracts/Sponsors.sol",
  "abi": [
    {
      "inputs": [
        {
          "internalType": "address",
          "name": "_jackpotAddress",
          "type": "address"
        }
      ],
      "stateMutability": "nonpayable",
      "type": "constructor"
    },
    {
      "inputs": [],
      "name": "AccessControlBadConfirmation",
      "type": "error"
    },
    {
      "inputs": [
        {
          "internalType": "address",
          "name": "account",
          "type": "address"
        },
        {
          "internalType": "bytes32",
          "name": "neededRole",
          "type": "bytes32"
        }
      ],
      "name": "AccessControlUnauthorizedAccount",
      "type": "error"
    },
    {
      "inputs": [],
      "name": "ReentrancyGuardReentrantCall",
      "type": "error"
    },
    {
      "anonymous": false,
      "inputs": [
        {
          "indexed": true,
          "internalType": "uint256",
          "name": "week",
          "type": "uint256"
        },
        {
          "indexed": true,
          "internalType": "address",
          "name": "sponsor",
          "type": "address"
        },
        {
          "indexed": true,
          "internalType": "uint256",
          "name": "amount",
          "type": "uint256"
        },
        {
          "indexed": false,
          "internalType": "enum Sponsors.Tier",
          "name": "tier",
          "type": "uint8"
        },
        {
          "indexed": false,
          "internalType": "string",
          "name": "name",
          "type": "string"
        },
        {
          "indexed": false,
          "internalType": "string",
          "name": "cta",
          "type": "string"
        },
        {
          "indexed": false,
          "internalType": "string",
          "name": "description",
          "type": "string"
        },
        {
          "indexed": false,
          "internalType": "string",
          "name": "logoUrl",
          "type": "string"
        },
        {
          "indexed": false,
          "internalType": "string",
          "name": "website",
          "type": "string"
        }
      ],
      "name": "NewSponsor",
      "type": "event"
    },
    {
      "anonymous": false,
      "inputs": [
        {
          "indexed": true,
          "internalType": "bytes32",
          "name": "role",
          "type": "bytes32"
        },
        {
          "indexed": true,
          "internalType": "bytes32",
          "name": "previousAdminRole",
          "type": "bytes32"
        },
        {
          "indexed": true,
          "internalType": "bytes32",
          "name": "newAdminRole",
          "type": "bytes32"
        }
      ],
      "name": "RoleAdminChanged",
      "type": "event"
    },
    {
      "anonymous": false,
      "inputs": [
        {
          "indexed": true,
          "internalType": "bytes32",
          "name": "role",
          "type": "bytes32"
        },
        {
          "indexed": true,
          "internalType": "address",
          "name": "account",
          "type": "address"
        },
        {
          "indexed": true,
          "internalType": "address",
          "name": "sender",
          "type": "address"
        }
      ],
      "name": "RoleGranted",
      "type": "event"
    },
    {
      "anonymous": false,
      "inputs": [
        {
          "indexed": true,
          "internalType": "bytes32",
          "name": "role",
          "type": "bytes32"
        },
        {
          "indexed": true,
          "internalType": "address",
          "name": "account",
          "type": "address"
        },
        {
          "indexed": true,
          "internalType": "address",
          "name": "sender",
          "type": "address"
        }
      ],
      "name": "RoleRevoked",
      "type": "event"
    },
    {
      "stateMutability": "payable",
      "type": "fallback"
    },
    {
      "inputs": [],
      "name": "BRONZE_PRICE",
      "outputs": [
        {
          "internalType": "uint256",
          "name": "",
          "type": "uint256"
        }
      ],
      "stateMutability": "view",
      "type": "function"
    },
    {
      "inputs": [],
      "name": "BRONZE_SLOTS",
      "outputs": [
        {
          "internalType": "uint256",
          "name": "",
          "type": "uint256"
        }
      ],
      "stateMutability": "view",
      "type": "function"
    },
    {
      "inputs": [],
      "name": "DEFAULT_ADMIN_ROLE",
      "outputs": [
        {
          "internalType": "bytes32",
          "name": "",
          "type": "bytes32"
        }
      ],
      "stateMutability": "view",
      "type": "function"
    },
    {
      "inputs": [],
      "name": "GOLD_PRICE",
      "outputs": [
        {
          "internalType": "uint256",
          "name": "",
          "type": "uint256"
        }
      ],
      "stateMutability": "view",
      "type": "function"
    },
    {
      "inputs": [],
      "name": "GOLD_SLOTS",
      "outputs": [
        {
          "internalType": "uint256",
          "name": "",
          "type": "uint256"
        }
      ],
      "stateMutability": "view",
      "type": "function"
    },
    {
      "inputs": [],
      "name": "JACKPOT_ADDRESS",
      "outputs": [
        {
          "internalType": "address",
          "name": "",
          "type": "address"
        }
      ],
      "stateMutability": "view",
      "type": "function"
    },
    {
      "inputs": [],
      "name": "JACKPOT_GAME_ROLE",
      "outputs": [
        {
          "internalType": "bytes32",
          "name": "",
          "type": "bytes32"
        }
      ],
      "stateMutability": "view",
      "type": "function"
    },
    {
      "inputs": [],
      "name": "SILVER_PRICE",
      "outputs": [
        {
          "internalType": "uint256",
          "name": "",
          "type": "uint256"
        }
      ],
      "stateMutability": "view",
      "type": "function"
    },
    {
      "inputs": [],
      "name": "SILVER_SLOTS",
      "outputs": [
        {
          "internalType": "uint256",
          "name": "",
          "type": "uint256"
        }
      ],
      "stateMutability": "view",
      "type": "function"
    },
    {
      "inputs": [],
      "name": "TIMESTAMP_ZERO",
      "outputs": [
        {
          "internalType": "uint256",
          "name": "",
          "type": "uint256"
        }
      ],
      "stateMutability": "view",
      "type": "function"
    },
    {
      "inputs": [
        {
          "internalType": "uint256",
          "name": "week",
          "type": "uint256"
        }
      ],
      "name": "adsOfWeek",
      "outputs": [
        {
          "components": [
            {
              "internalType": "address",
              "name": "sponsor",
              "type": "address"
            },
            {
              "internalType": "enum Sponsors.Tier",
              "name": "tier",
              "type": "uint8"
            },
            {
              "internalType": "string",
              "name": "name",
              "type": "string"
            },
            {
              "internalType": "string",
              "name": "cta",
              "type": "string"
            },
            {
              "internalType": "string",
              "name": "description",
              "type": "string"
            },
            {
              "internalType": "string",
              "name": "website",
              "type": "string"
            },
            {
              "internalType": "string",
              "name": "logoUrl",
              "type": "string"
            },
            {
              "internalType": "uint256",
              "name": "amountDonated",
              "type": "uint256"
            },
            {
              "internalType": "uint256",
              "name": "week",
              "type": "uint256"
            }
          ],
          "internalType": "struct Sponsors.Ad[6]",
          "name": "",
          "type": "tuple[6]"
        }
      ],
      "stateMutability": "view",
      "type": "function"
    },
    {
      "inputs": [],
      "name": "currentAds",
      "outputs": [
        {
          "components": [
            {
              "internalType": "address",
              "name": "sponsor",
              "type": "address"
            },
            {
              "internalType": "enum Sponsors.Tier",
              "name": "tier",
              "type": "uint8"
            },
            {
              "internalType": "string",
              "name": "name",
              "type": "string"
            },
            {
              "internalType": "string",
              "name": "cta",
              "type": "string"
            },
            {
              "internalType": "string",
              "name": "description",
              "type": "string"
            },
            {
              "internalType": "string",
              "name": "website",
              "type": "string"
            },
            {
              "internalType": "string",
              "name": "logoUrl",
              "type": "string"
            },
            {
              "internalType": "uint256",
              "name": "amountDonated",
              "type": "uint256"
            },
            {
              "internalType": "uint256",
              "name": "week",
              "type": "uint256"
            }
          ],
          "internalType": "struct Sponsors.Ad[6]",
          "name": "",
          "type": "tuple[6]"
        }
      ],
      "stateMutability": "view",
      "type": "function"
    },
    {
      "inputs": [],
      "name": "currentWeek",
      "outputs": [
        {
          "internalType": "uint256",
          "name": "",
          "type": "uint256"
        }
      ],
      "stateMutability": "view",
      "type": "function"
    },
    {
      "inputs": [
        {
          "internalType": "bytes32",
          "name": "role",
          "type": "bytes32"
        }
      ],
      "name": "getRoleAdmin",
      "outputs": [
        {
          "internalType": "bytes32",
          "name": "",
          "type": "bytes32"
        }
      ],
      "stateMutability": "view",
      "type": "function"
    },
    {
      "inputs": [
        {
          "internalType": "bytes32",
          "name": "role",
          "type": "bytes32"
        },
        {
          "internalType": "address",
          "name": "account",
          "type": "address"
        }
      ],
      "name": "grantRole",
      "outputs": [],
      "stateMutability": "nonpayable",
      "type": "function"
    },
    {
      "inputs": [
        {
          "internalType": "bytes32",
          "name": "role",
          "type": "bytes32"
        },
        {
          "internalType": "address",
          "name": "account",
          "type": "address"
        }
      ],
      "name": "hasRole",
      "outputs": [
        {
          "internalType": "bool",
          "name": "",
          "type": "bool"
        }
      ],
      "stateMutability": "view",
      "type": "function"
    },
    {
      "inputs": [
        {
          "internalType": "bytes32",
          "name": "role",
          "type": "bytes32"
        },
        {
          "internalType": "address",
          "name": "callerConfirmation",
          "type": "address"
        }
      ],
      "name": "renounceRole",
      "outputs": [],
      "stateMutability": "nonpayable",
      "type": "function"
    },
    {
      "inputs": [
        {
          "internalType": "bytes32",
          "name": "role",
          "type": "bytes32"
        },
        {
          "internalType": "address",
          "name": "account",
          "type": "address"
        }
      ],
      "name": "revokeRole",
      "outputs": [],
      "stateMutability": "nonpayable",
      "type": "function"
    },
    {
      "inputs": [
        {
          "internalType": "address",
          "name": "jackpotAddress",
          "type": "address"
        }
      ],
      "name": "setJackpot",
      "outputs": [],
      "stateMutability": "nonpayable",
      "type": "function"
    },
    {
      "inputs": [
        {
          "internalType": "uint256",
          "name": "gold",
          "type": "uint256"
        },
        {
          "internalType": "uint256",
          "name": "silver",
          "type": "uint256"
        },
        {
          "internalType": "uint256",
          "name": "bronze",
          "type": "uint256"
        }
      ],
      "name": "setPrices",
      "outputs": [],
      "stateMutability": "nonpayable",
      "type": "function"
    },
    {
      "inputs": [
        {
          "internalType": "uint256",
          "name": "_week",
          "type": "uint256"
        },
        {
          "internalType": "enum Sponsors.Tier",
          "name": "_tier",
          "type": "uint8"
        },
        {
          "internalType": "string",
          "name": "_name",
          "type": "string"
        },
        {
          "internalType": "string",
          "name": "_cta",
          "type": "string"
        },
        {
          "internalType": "string",
          "name": "_description",
          "type": "string"
        },
        {
          "internalType": "string",
          "name": "_website",
          "type": "string"
        },
        {
          "internalType": "string",
          "name": "_logoUrl",
          "type": "string"
        }
      ],
      "name": "sponsorize",
      "outputs": [],
      "stateMutability": "payable",
      "type": "function"
    },
    {
      "inputs": [
        {
          "internalType": "bytes4",
          "name": "interfaceId",
          "type": "bytes4"
        }
      ],
      "name": "supportsInterface",
      "outputs": [
        {
          "internalType": "bool",
          "name": "",
          "type": "bool"
        }
      ],
      "stateMutability": "view",
      "type": "function"
    },
    {
      "inputs": [
        {
          "internalType": "enum Sponsors.Tier",
          "name": "_tier",
          "type": "uint8"
        }
      ],
      "name": "tierPrice",
      "outputs": [
        {
          "internalType": "uint256",
          "name": "",
          "type": "uint256"
        }
      ],
      "stateMutability": "view",
      "type": "function"
    },
    {
      "inputs": [
        {
          "internalType": "uint256",
          "name": "",
          "type": "uint256"
        },
        {
          "internalType": "uint256",
          "name": "",
          "type": "uint256"
        }
      ],
      "name": "weeklyAds",
      "outputs": [
        {
          "internalType": "address",
          "name": "sponsor",
          "type": "address"
        },
        {
          "internalType": "enum Sponsors.Tier",
          "name": "tier",
          "type": "uint8"
        },
        {
          "internalType": "string",
          "name": "name",
          "type": "string"
        },
        {
          "internalType": "string",
          "name": "cta",
          "type": "string"
        },
        {
          "internalType": "string",
          "name": "description",
          "type": "string"
        },
        {
          "internalType": "string",
          "name": "website",
          "type": "string"
        },
        {
          "internalType": "string",
          "name": "logoUrl",
          "type": "string"
        },
        {
          "internalType": "uint256",
          "name": "amountDonated",
          "type": "uint256"
        },
        {
          "internalType": "uint256",
          "name": "week",
          "type": "uint256"
        }
      ],
      "stateMutability": "view",
      "type": "function"
    },
    {
      "stateMutability": "payable",
      "type": "receive"
    }
  ],
  "bytecode": "0x60a0346100b157601f6119f638819003918201601f19168301916001600160401b038311848410176100b5578084926020946040528339810103126100b157516001600160a01b038116908190036100b157600180554260805264e8d4a5100060035564a0a73474006004556461c9f36800600555600280546001600160a01b031916919091179055610091336100c9565b50604051611883908161015382396080518181816101c1015261153b0152f35b5f80fd5b634e487b7160e01b5f52604160045260245ffd5b6001600160a01b0381165f9081525f5160206119d65f395f51905f52602052604090205460ff1661014d576001600160a01b03165f8181525f5160206119d65f395f51905f5260205260408120805460ff191660011790553391907f2f8788117e7eff1d82e926ec794901d17c78024a50270940304540a733656f0d8180a4600190565b505f9056fe6080806040526004361015610096575b5036156100525760405162461bcd60e51b815260206004820152601460248201527311985b1b189858dac81b9bdd08185b1b1bddd95960621b6044820152606490fd5b606460405162461bcd60e51b815260206004820152602060248201527f506c656173652c2063616c6c2053706f6e736f72697a652066756e6374696f6e6044820152fd5b5f3560e01c90816301b9691b146112535750806301ffc9a7146111fd57806306575c89146111e35780631cde3901146111c8578063248a9ca31461119e57806329cc35b0146107715780632a6c7fcf1461067c5780632f2ff15d1461063f57806336568abe146105fb5780633ff89f1e146104e75780635dbc6d6c146104ca5780637b738e2b146104af5780637e95385c146104655780638281b3ac146104485780638b5425261461041857806391d14854146103d057806393969075146103b5578063a217fddf1461039b578063a88fe42d1461036e578063aa0c284114610346578063c0fbed0214610329578063d547741f146102e5578063de6fee07146101e85763dede511f146101aa575f61000f565b346101e4575f3660031901126101e45760206040517f00000000000000000000000000000000000000000000000000000000000000008152f35b5f80fd5b346101e4575f3660031901126101e4576102006115e9565b50610209611539565b5f52600660205260405f20604051906102218261145d565b5f825b6006821061023e576040518061023a86826112e9565b0390f35b6008602060019260405161025181611441565b61026e60ff8854878060a01b038116845260a01c1684830161156c565b610279858801611499565b604082015261028a60028801611499565b606082015261029b60038801611499565b60808201526102ac60048801611499565b60a08201526102bd60058801611499565b60c0820152600687015460e08201526007870154610100820152815201930191019091610224565b346101e45760403660031901126101e4576103276004356103046113cc565b9061032261031d825f525f602052600160405f20015490565b61170d565b6117cd565b005b346101e4575f3660031901126101e4576020600554604051908152f35b346101e4575f3660031901126101e4576002546040516001600160a01b039091168152602090f35b346101e45760603660031901126101e4576103876116be565b600480356003556024359055604435600555005b346101e4575f3660031901126101e45760206040515f8152f35b346101e4575f3660031901126101e457602060405160028152f35b346101e45760403660031901126101e4576103e96113cc565b6004355f525f60205260405f209060018060a01b03165f52602052602060ff60405f2054166040519015158152f35b346101e45760203660031901126101e45760043560038110156101e457610440602091611658565b604051908152f35b346101e4575f3660031901126101e4576020600354604051908152f35b346101e45760203660031901126101e4576004356001600160a01b038116908190036101e4576104936116be565b6bffffffffffffffffffffffff60a01b60025416176002555f80f35b346101e4575f3660031901126101e457602060405160018152f35b346101e4575f3660031901126101e4576020600454604051908152f35b346101e45760403660031901126101e4576024356004355f52600660205260405f209060068110156101e45761051c916113e2565b50805461052b60018301611499565b9161053860028201611499565b61054460038301611499565b61055060048401611499565b61055c60058501611499565b916006850154946007015493604051978897600160a01b6001900381168952602089019060a01c60ff1690610590916112b8565b60408801610120905261012088016105a7916112c5565b87810360608901526105b8916112c5565b86810360808801526105c9916112c5565b85810360a08701526105da916112c5565b84810360c08601526105eb916112c5565b9160e08401526101008301520390f35b346101e45760403660031901126101e4576106146113cc565b336001600160a01b0382160361063057610327906004356117cd565b63334bd91960e11b5f5260045ffd5b346101e45760403660031901126101e45761032760043561065e6113cc565b9061067761031d825f525f602052600160405f20015490565b611745565b346101e45760203660031901126101e4576106956115e9565b506004355f52600660205260405f20604051906106b18261145d565b5f825b600682106106ca576040518061023a86826112e9565b600860206001926040516106dd81611441565b6106fa60ff8854878060a01b038116845260a01c1684830161156c565b610705858801611499565b604082015261071660028801611499565b606082015261072760038801611499565b608082015261073860048801611499565b60a082015261074960058801611499565b60c0820152600687015460e082015260078701546101008201528152019301910190916106b4565b60e03660031901126101e45760043560243560038110156101e4576044356001600160401b0381116101e4576107ab90369060040161128b565b6064939193356001600160401b0381116101e4576107cd90369060040161128b565b9390946084356001600160401b0381116101e4576107ef90369060040161128b565b959060a4356001600160401b0381116101e45761081090369060040161128b565b97909860c4356001600160401b0381116101e45761083290369060040161128b565b94909560026001541461118f57600260015561084d88611658565b341061114a575f8089611095578b5f52600660205261086f8260405f206113e2565b50546001600160a01b03161561108d575b15611035578a8a918a8f8f898b8e8e946040519961089d8b611441565b338b5260208b01976108af908961156c565b366108ba918d611593565b9260408b019384528d8d36906108cf92611593565b9460608c0195865236906108e292611593565b9460808b0195865236906108f592611593565b9460a08a01958652369061090892611593565b9460c0890195865260e08901963488526101008a0198808a525f52600660205260405f2090610936916113e2565b999099611022575189546001600160a01b0319166001600160a01b039190911617895551600381101561100e57885460ff60a01b191660a09190911b60ff60a01b1617885551805160018901916001600160401b038211610d0257819061099d8454611409565b601f8111610fbe575b50602090601f8311600114610f5b575f92610f50575b50508160011b915f199060031b1c19161790555b51805160028801916001600160401b038211610d025781906109f28454611409565b601f8111610f00575b50602090601f8311600114610e9d575f92610e92575b50508160011b915f199060031b1c19161790555b51805160038701916001600160401b038211610d02578190610a478454611409565b601f8111610e42575b50602090601f8311600114610ddf575f92610dd4575b50508160011b915f199060031b1c19161790555b51805160048601916001600160401b038211610d02578190610a9c8454611409565b601f8111610d84575b50602090601f8311600114610d21575f92610d16575b50508160011b915f199060031b1c19161790555b51805160058501916001600160401b038211610d0257610aef8354611409565b601f8111610cbd575b50602090601f8311600114610c5557600795949392915f9183610c4a575b50508160011b915f199060031b1c19161790555b516006840155519101555f8080803460018060a01b03600254165af13d15610c45573d610b5681611578565b90610b646040519283611478565b81525f60203d92013e5b15610c0e5760405198610b828a809a6112b8565b6020890160c0905260c0890190610b98926115c9565b908782036040890152610baa926115c9565b908582036060870152610bbc926115c9565b908382036080850152610bce926115c9565b9481860360a083015234953395610be4926115c9565b037facc6e23fd2d1d61df910ae3dc70309480262a063d355e946b358183ee258321791a460018055005b60405162461bcd60e51b815260206004820152600f60248201526e151c985b9cd9995c8819985a5b1959608a1b6044820152606490fd5b610b6e565b015190505f80610b16565b90601f19831691845f52815f20925f5b818110610ca557509160019391856007999897969410610c8d575b505050811b019055610b2a565b01515f1960f88460031b161c191690555f8080610c80565b92936020600181928786015181550195019301610c65565b835f5260205f20601f840160051c81019160208510610cf8575b601f0160051c01905b818110610ced5750610af8565b5f8155600101610ce0565b9091508190610cd7565b634e487b7160e01b5f52604160045260245ffd5b015190505f80610abb565b5f8581528281209350601f198516905b818110610d6c5750908460019594939210610d54575b505050811b019055610acf565b01515f1960f88460031b161c191690555f8080610d47565b92936020600181928786015181550195019301610d31565b909150835f5260205f20601f840160051c81019160208510610dca575b90601f859493920160051c01905b818110610dbc5750610aa5565b5f8155849350600101610daf565b9091508190610da1565b015190505f80610a66565b5f8581528281209350601f198516905b818110610e2a5750908460019594939210610e12575b505050811b019055610a7a565b01515f1960f88460031b161c191690555f8080610e05565b92936020600181928786015181550195019301610def565b909150835f5260205f20601f840160051c81019160208510610e88575b90601f859493920160051c01905b818110610e7a5750610a50565b5f8155849350600101610e6d565b9091508190610e5f565b015190505f80610a11565b5f8581528281209350601f198516905b818110610ee85750908460019594939210610ed0575b505050811b019055610a25565b01515f1960f88460031b161c191690555f8080610ec3565b92936020600181928786015181550195019301610ead565b909150835f5260205f20601f840160051c81019160208510610f46575b90601f859493920160051c01905b818110610f3857506109fb565b5f8155849350600101610f2b565b9091508190610f1d565b015190505f806109bc565b5f8581528281209350601f198516905b818110610fa65750908460019594939210610f8e575b505050811b0190556109d0565b01515f1960f88460031b161c191690555f8080610f81565b92936020600181928786015181550195019301610f6b565b909150835f5260205f20601f840160051c81019160208510611004575b90601f859493920160051c01905b818110610ff657506109a6565b5f8155849350600101610fe9565b9091508190610fdb565b634e487b7160e01b5f52602160045260245ffd5b634e487b7160e01b5f525f60045260245ffd5b60405162461bcd60e51b815260206004820152602a60248201527f4e6f20617661696c61626c6520736c6f747320666f72207468697320746965726044820152692074686973207765656b60b01b6064820152608490fd5b506001610880565b60018a036111045760015b60028111156110b0575b50610880565b8c5f5260066020526110c58160405f206113e2565b50546001600160a01b0316156110f9575f1981146110e5576001016110a0565b634e487b7160e01b5f52601160045260245ffd5b91505060018e6110aa565b60028a036108805760035b6006811061111d5750610880565b8c5f5260066020526111328160405f206113e2565b50546001600160a01b0316156110f95760010161110f565b60405162461bcd60e51b815260206004820152601760248201527f4e6f7420656e6f7567682045544820666f7220746965720000000000000000006044820152606490fd5b633ee5aeb560e01b5f5260045ffd5b346101e45760203660031901126101e45760206104406004355f525f602052600160405f20015490565b346101e4575f3660031901126101e457602060405160038152f35b346101e4575f3660031901126101e4576020610440611539565b346101e45760203660031901126101e45760043563ffffffff60e01b81168091036101e457602090637965db0b60e01b8114908115611242575b506040519015158152f35b6301ffc9a760e01b14905082611237565b346101e4575f3660031901126101e457807f5b8b382ad6d95db02987b837e3fdc8ec0a744175ef19c16713bfc6a4e3bab62560209252f35b9181601f840112156101e4578235916001600160401b0383116101e457602083818601950101116101e457565b90600382101561100e5752565b805180835260209291819084018484015e5f828201840152601f01601f1916010190565b60208101602082529060e0810192915f905b6006821061130a575050505090565b90919293602080600192601f19878203018552875190848060a01b03825116815261133b83830151848301906112b8565b610100806113ae61139c61138a611378611366604089015161012060408a01526101208901906112c5565b606089015188820360608a01526112c5565b608088015187820360808901526112c5565b60a087015186820360a08801526112c5565b60c086015185820360c08701526112c5565b9360e081015160e085015201519101529601920192019092916112fb565b602435906001600160a01b03821682036101e457565b9060068110156113f55760031b01905f90565b634e487b7160e01b5f52603260045260245ffd5b90600182811c92168015611437575b602083101461142357565b634e487b7160e01b5f52602260045260245ffd5b91607f1691611418565b61012081019081106001600160401b03821117610d0257604052565b60c081019081106001600160401b03821117610d0257604052565b90601f801991011681019081106001600160401b03821117610d0257604052565b9060405191825f8254926114ac84611409565b808452936001811690811561151757506001146114d3575b506114d192500383611478565b565b90505f9291925260205f20905f915b8183106114fb5750509060206114d1928201015f6114c4565b60209193508060019154838589010152019101909184926114e2565b9050602092506114d194915060ff191682840152151560051b8201015f6114c4565b7f000000000000000000000000000000000000000000000000000000000000000042034281116110e55762093a80900490565b600382101561100e5752565b6001600160401b038111610d0257601f01601f191660200190565b92919261159f82611578565b916115ad6040519384611478565b8294818452818301116101e4578281602093845f960137010152565b908060209392818452848401375f828201840152601f01601f1916010190565b6040519060c06115f98184611478565b825f5b82811061160857505050565b60209060405161161781611441565b5f81525f838201526060604082015260608082015260606080820152606060a0820152606060c08201525f60e08201525f61010082015281840152016115fc565b600381101561100e5780156116b757600181146116b0576002146116aa5760405162461bcd60e51b815260206004820152600c60248201526b24b73b30b634b2102a34b2b960a11b6044820152606490fd5b60055490565b5060045490565b5060035490565b335f9081527fad3228b676f7d3cd4284a5443f17f1962b36e491b30a40b2405849e597ba5fb5602052604090205460ff16156116f657565b63e2517d3f60e01b5f52336004525f60245260445ffd5b5f8181526020818152604080832033845290915290205460ff161561172f5750565b63e2517d3f60e01b5f523360045260245260445ffd5b5f818152602081815260408083206001600160a01b038616845290915290205460ff166117c7575f818152602081815260408083206001600160a01b0395909516808452949091528120805460ff19166001179055339291907f2f8788117e7eff1d82e926ec794901d17c78024a50270940304540a733656f0d9080a4600190565b50505f90565b5f818152602081815260408083206001600160a01b038616845290915290205460ff16156117c7575f818152602081815260408083206001600160a01b0395909516808452949091528120805460ff19169055339291907ff6391f5c32d9c69d2a47ea670b442974b53935d1edc7fd64eb21e047a839171b9080a460019056fea2646970667358221220fce687787fec3b822962879bfe7f4e6050dc2cbf1c79497fb439d0fb5566420b64736f6c634300081c0033ad3228b676f7d3cd4284a5443f17f1962b36e491b30a40b2405849e597ba5fb5",
  "linkReferences": {},
  "deployedLinkReferences": {},
  "immutableReferences": {
    "539": [
      {
        "length": 32,
        "start": 449
      },
      {
        "length": 32,
        "start": 5435
      }
    ]
  },
  "inputSourceName": "project/contracts/Sponsors.sol",
  "buildInfoId": "solc-0_8_28-dff0b48f91bd6fa3d30928b16dd5868e4b253ce3"
}