{
  "_format": "hh3-artifact-1",
  "contractName": "Jackpot",
  "sourceName": "contracts/Jackpot.sol",
  "abi": [
    {
      "inputs": [
        {
          "internalType": "uint256",
          "name": "_jackpotPrizePermil",
          "type": "uint256"
        },
        {
          "internalType": "uint256",
          "name": "_jackpotWinOdds",
          "type": "uint256"
        }
      ],
      "stateMutability": "nonpayable",
      "type": "constructor"
    },
    {
      "inputs": [],
      "name": "AccessControlBadConfirmation",
      "type": "error"
    },
    {
      "inputs": [
        {
          "internalType": "address",
          "name": "account",
          "type": "address"
        },
        {
          "internalType": "bytes32",
          "name": "neededRole",
          "type": "bytes32"
        }
      ],
      "name": "AccessControlUnauthorizedAccount",
      "type": "error"
    },
    {
      "inputs": [],
      "name": "ReentrancyGuardReentrantCall",
      "type": "error"
    },
    {
      "anonymous": false,
      "inputs": [
        {
          "indexed": true,
          "internalType": "address",
          "name": "winner",
          "type": "address"
        },
        {
          "indexed": false,
          "internalType": "uint256",
          "name": "prize",
          "type": "uint256"
        },
        {
          "indexed": true,
          "internalType": "address",
          "name": "caller",
          "type": "address"
        }
      ],
      "name": "JackpotClaimed",
      "type": "event"
    },
    {
      "anonymous": false,
      "inputs": [
        {
          "indexed": true,
          "internalType": "uint64",
          "name": "ticketId",
          "type": "uint64"
        },
        {
          "indexed": true,
          "internalType": "address",
          "name": "winner",
          "type": "address"
        },
        {
          "indexed": false,
          "internalType": "uint256",
          "name": "prize",
          "type": "uint256"
        }
      ],
      "name": "JackpotWinner",
      "type": "event"
    },
    {
      "anonymous": false,
      "inputs": [
        {
          "indexed": true,
          "internalType": "uint64",
          "name": "sequenceNumber",
          "type": "uint64"
        },
        {
          "indexed": true,
          "internalType": "address",
          "name": "gameAddress",
          "type": "address"
        }
      ],
      "name": "RandomNumberRequested",
      "type": "event"
    },
    {
      "anonymous": false,
      "inputs": [
        {
          "indexed": true,
          "internalType": "uint64",
          "name": "sequenceNumber",
          "type": "uint64"
        },
        {
          "indexed": false,
          "internalType": "bool",
          "name": "isWinner",
          "type": "bool"
        },
        {
          "indexed": false,
          "internalType": "uint256",
          "name": "randomNumber",
          "type": "uint256"
        }
      ],
      "name": "RandomNumberResult",
      "type": "event"
    },
    {
      "anonymous": false,
      "inputs": [
        {
          "indexed": true,
          "internalType": "bytes32",
          "name": "role",
          "type": "bytes32"
        },
        {
          "indexed": true,
          "internalType": "bytes32",
          "name": "previousAdminRole",
          "type": "bytes32"
        },
        {
          "indexed": true,
          "internalType": "bytes32",
          "name": "newAdminRole",
          "type": "bytes32"
        }
      ],
      "name": "RoleAdminChanged",
      "type": "event"
    },
    {
      "anonymous": false,
      "inputs": [
        {
          "indexed": true,
          "internalType": "bytes32",
          "name": "role",
          "type": "bytes32"
        },
        {
          "indexed": true,
          "internalType": "address",
          "name": "account",
          "type": "address"
        },
        {
          "indexed": true,
          "internalType": "address",
          "name": "sender",
          "type": "address"
        }
      ],
      "name": "RoleGranted",
      "type": "event"
    },
    {
      "anonymous": false,
      "inputs": [
        {
          "indexed": true,
          "internalType": "bytes32",
          "name": "role",
          "type": "bytes32"
        },
        {
          "indexed": true,
          "internalType": "address",
          "name": "account",
          "type": "address"
        },
        {
          "indexed": true,
          "internalType": "address",
          "name": "sender",
          "type": "address"
        }
      ],
      "name": "RoleRevoked",
      "type": "event"
    },
    {
      "anonymous": false,
      "inputs": [
        {
          "indexed": true,
          "internalType": "uint64",
          "name": "ticketId",
          "type": "uint64"
        },
        {
          "indexed": true,
          "internalType": "address",
          "name": "player",
          "type": "address"
        },
        {
          "indexed": false,
          "internalType": "uint256",
          "name": "amount",
          "type": "uint256"
        },
        {
          "indexed": true,
          "internalType": "address",
          "name": "gameAddress",
          "type": "address"
        }
      ],
      "name": "TicketAssigned",
      "type": "event"
    },
    {
      "stateMutability": "payable",
      "type": "fallback"
    },
    {
      "inputs": [],
      "name": "DEFAULT_ADMIN_ROLE",
      "outputs": [
        {
          "internalType": "bytes32",
          "name": "",
          "type": "bytes32"
        }
      ],
      "stateMutability": "view",
      "type": "function"
    },
    {
      "inputs": [],
      "name": "JACKPOT_GAME_ROLE",
      "outputs": [
        {
          "internalType": "bytes32",
          "name": "",
          "type": "bytes32"
        }
      ],
      "stateMutability": "view",
      "type": "function"
    },
    {
      "inputs": [],
      "name": "JACKPOT_PRIZE_PERMIL",
      "outputs": [
        {
          "internalType": "uint256",
          "name": "",
          "type": "uint256"
        }
      ],
      "stateMutability": "view",
      "type": "function"
    },
    {
      "inputs": [],
      "name": "JACKPOT_THRESHOLD",
      "outputs": [
        {
          "internalType": "uint256",
          "name": "",
          "type": "uint256"
        }
      ],
      "stateMutability": "view",
      "type": "function"
    },
    {
      "inputs": [],
      "name": "JACKPOT_WIN_ODDS",
      "outputs": [
        {
          "internalType": "uint256",
          "name": "",
          "type": "uint256"
        }
      ],
      "stateMutability": "view",
      "type": "function"
    },
    {
      "inputs": [
        {
          "internalType": "uint64",
          "name": "sequence",
          "type": "uint64"
        },
        {
          "internalType": "address",
          "name": "provider",
          "type": "address"
        },
        {
          "internalType": "bytes32",
          "name": "randomNumber",
          "type": "bytes32"
        }
      ],
      "name": "_entropyCallback",
      "outputs": [],
      "stateMutability": "nonpayable",
      "type": "function"
    },
    {
      "inputs": [
        {
          "internalType": "address",
          "name": "player",
          "type": "address"
        }
      ],
      "name": "assignTicket",
      "outputs": [
        {
          "internalType": "uint64",
          "name": "",
          "type": "uint64"
        }
      ],
      "stateMutability": "payable",
      "type": "function"
    },
    {
      "inputs": [],
      "name": "claimJackpot",
      "outputs": [],
      "stateMutability": "nonpayable",
      "type": "function"
    },
    {
      "inputs": [
        {
          "internalType": "address",
          "name": "winner",
          "type": "address"
        }
      ],
      "name": "claimJackpotFromGame",
      "outputs": [],
      "stateMutability": "nonpayable",
      "type": "function"
    },
    {
      "inputs": [
        {
          "internalType": "address",
          "name": "winner",
          "type": "address"
        }
      ],
      "name": "claimJackpotTo",
      "outputs": [],
      "stateMutability": "nonpayable",
      "type": "function"
    },
    {
      "inputs": [],
      "name": "getJackpotFee",
      "outputs": [
        {
          "internalType": "uint256",
          "name": "entropyFee",
          "type": "uint256"
        }
      ],
      "stateMutability": "view",
      "type": "function"
    },
    {
      "inputs": [
        {
          "internalType": "bytes32",
          "name": "role",
          "type": "bytes32"
        }
      ],
      "name": "getRoleAdmin",
      "outputs": [
        {
          "internalType": "bytes32",
          "name": "",
          "type": "bytes32"
        }
      ],
      "stateMutability": "view",
      "type": "function"
    },
    {
      "inputs": [
        {
          "internalType": "bytes32",
          "name": "role",
          "type": "bytes32"
        },
        {
          "internalType": "address",
          "name": "account",
          "type": "address"
        }
      ],
      "name": "grantRole",
      "outputs": [],
      "stateMutability": "nonpayable",
      "type": "function"
    },
    {
      "inputs": [
        {
          "internalType": "bytes32",
          "name": "role",
          "type": "bytes32"
        },
        {
          "internalType": "address",
          "name": "account",
          "type": "address"
        }
      ],
      "name": "hasRole",
      "outputs": [
        {
          "internalType": "bool",
          "name": "",
          "type": "bool"
        }
      ],
      "stateMutability": "view",
      "type": "function"
    },
    {
      "inputs": [
        {
          "internalType": "bytes32",
          "name": "role",
          "type": "bytes32"
        },
        {
          "internalType": "address",
          "name": "callerConfirmation",
          "type": "address"
        }
      ],
      "name": "renounceRole",
      "outputs": [],
      "stateMutability": "nonpayable",
      "type": "function"
    },
    {
      "inputs": [
        {
          "internalType": "bytes32",
          "name": "role",
          "type": "bytes32"
        },
        {
          "internalType": "address",
          "name": "account",
          "type": "address"
        }
      ],
      "name": "revokeRole",
      "outputs": [],
      "stateMutability": "nonpayable",
      "type": "function"
    },
    {
      "inputs": [
        {
          "internalType": "uint256",
          "name": "newPermil",
          "type": "uint256"
        }
      ],
      "name": "setJackpotPrizePermil",
      "outputs": [],
      "stateMutability": "nonpayable",
      "type": "function"
    },
    {
      "inputs": [
        {
          "internalType": "uint256",
          "name": "newOdds",
          "type": "uint256"
        }
      ],
      "name": "setJackpotWinOdds",
      "outputs": [],
      "stateMutability": "nonpayable",
      "type": "function"
    },
    {
      "inputs": [
        {
          "internalType": "bytes4",
          "name": "interfaceId",
          "type": "bytes4"
        }
      ],
      "name": "supportsInterface",
      "outputs": [
        {
          "internalType": "bool",
          "name": "",
          "type": "bool"
        }
      ],
      "stateMutability": "view",
      "type": "function"
    },
    {
      "inputs": [
        {
          "internalType": "uint64",
          "name": "ticketId",
          "type": "uint64"
        }
      ],
      "name": "tickets",
      "outputs": [
        {
          "internalType": "address",
          "name": "player",
          "type": "address"
        }
      ],
      "stateMutability": "view",
      "type": "function"
    },
    {
      "inputs": [
        {
          "internalType": "address",
          "name": "player",
          "type": "address"
        }
      ],
      "name": "winners",
      "outputs": [
        {
          "internalType": "uint256",
          "name": "prize",
          "type": "uint256"
        }
      ],
      "stateMutability": "view",
      "type": "function"
    },
    {
      "stateMutability": "payable",
      "type": "receive"
    }
  ],
  "bytecode": "0x6080604052604560025560456003556003545f1961001d9190610166565b610028905f19610185565b600455600580546001600160a01b0319167341c9e39574f40ad34c79f1c99b66a45efb830d4c17905534801561005c575f5ffd5b5060405161123338038061123383398101604081905261007b916101a4565b60018055600282905560038190556100935f336100bd565b5050600554600680546001600160a01b0319166001600160a01b03909216919091179055506101c6565b5f828152602081815260408083206001600160a01b038516845290915281205460ff1661015d575f838152602081815260408083206001600160a01b03861684529091529020805460ff191660011790556101153390565b6001600160a01b0316826001600160a01b0316847f2f8788117e7eff1d82e926ec794901d17c78024a50270940304540a733656f0d60405160405180910390a4506001610160565b505f5b92915050565b5f8261018057634e487b7160e01b5f52601260045260245ffd5b500690565b8181038181111561016057634e487b7160e01b5f52601160045260245ffd5b5f5f604083850312156101b5575f5ffd5b505080516020909101519092909150565b611060806101d35f395ff3fe60806040526004361061012d575f3560e01c806352a5f1f8116100aa578063a217fddf1161006e578063a217fddf146103b8578063ae7cf346146103cb578063c574aa57146103ea578063d547741f14610409578063e288ea6414610428578063f6690ee41461043c57610134565b806352a5f1f81461031c5780636bd5450a1461033b57806385eb72b8146103665780638c4ba6051461037a57806391d148541461039957610134565b80632f2ff15d116100f15780632f2ff15d1461025157806336568abe14610270578063410c630b1461028f57806349c76462146102db57806350adb20d1461030757610134565b806301b9691b1461017857806301ffc9a7146101be578063067fd0d9146101ed5780630c34857214610202578063248a9ca31461022357610134565b3661013457005b60405162461bcd60e51b815260206004820152601460248201527311985b1b189858dac81b9bdd08185b1b1bddd95960621b60448201526064015b60405180910390fd5b348015610183575f5ffd5b506101ab7f5b8b382ad6d95db02987b837e3fdc8ec0a744175ef19c16713bfc6a4e3bab62581565b6040519081526020015b60405180910390f35b3480156101c9575f5ffd5b506101dd6101d8366004610e33565b610451565b60405190151581526020016101b5565b3480156101f8575f5ffd5b506101ab60045481565b34801561020d575f5ffd5b5061022161021c366004610e7c565b610487565b005b34801561022e575f5ffd5b506101ab61023d366004610e95565b5f9081526020819052604090206001015490565b34801561025c575f5ffd5b5061022161026b366004610eac565b61055e565b34801561027b575f5ffd5b5061022161028a366004610eac565b610588565b34801561029a575f5ffd5b506102c36102a9366004610eeb565b60076020525f90815260409020546001600160a01b031681565b6040516001600160a01b0390911681526020016101b5565b6102ee6102e9366004610e7c565b6105c0565b60405167ffffffffffffffff90911681526020016101b5565b348015610312575f5ffd5b506101ab60025481565b348015610327575f5ffd5b50610221610336366004610f06565b61066b565b348015610346575f5ffd5b506101ab610355366004610e7c565b60086020525f908152604090205481565b348015610371575f5ffd5b506101ab610745565b348015610385575f5ffd5b50610221610394366004610e95565b6107be565b3480156103a4575f5ffd5b506101dd6103b3366004610eac565b6107ea565b3480156103c3575f5ffd5b506101ab5f81565b3480156103d6575f5ffd5b506102216103e5366004610e95565b610812565b3480156103f5575f5ffd5b50610221610404366004610e7c565b610822565b348015610414575f5ffd5b50610221610423366004610eac565b610924565b348015610433575f5ffd5b50610221610948565b348015610447575f5ffd5b506101ab60035481565b5f6001600160e01b03198216637965db0b60e01b148061048157506301ffc9a760e01b6001600160e01b03198316145b92915050565b61048f610a18565b6001600160a01b0381165f81815260086020526040808220805490839055905190929083908381818185875af1925050503d805f81146104ea576040519150601f19603f3d011682016040523d82523d5f602084013e6104ef565b606091505b50509050806105105760405162461bcd60e51b815260040161016f90610f42565b60405182815233906001600160a01b038516907f82cfad5309d3f830bb786715bb42fac285de8744b262009559ae31ce925860089060200160405180910390a3505061055b60018055565b50565b5f8281526020819052604090206001015461057881610a42565b6105828383610a4c565b50505050565b6001600160a01b03811633146105b15760405163334bd91960e11b815260040160405180910390fd5b6105bb8282610adb565b505050565b5f7f5b8b382ad6d95db02987b837e3fdc8ec0a744175ef19c16713bfc6a4e3bab6256105eb81610a42565b5f6105f4610b44565b67ffffffffffffffff81165f8181526007602090815260409182902080546001600160a01b0319166001600160a01b038a16908117909155915134815293945033939192917f2f12c8b02b29157c9d7d0da55eb933172a0e1eb6f3944ae8b2342cdf6cff9aa4910160405180910390a49392505050565b5f61067e6006546001600160a01b031690565b90506001600160a01b0381166106d65760405162461bcd60e51b815260206004820152601760248201527f456e74726f70792061646472657373206e6f7420736574000000000000000000604482015260640161016f565b336001600160a01b0382161461073a5760405162461bcd60e51b815260206004820152602360248201527f4f6e6c7920456e74726f70792063616e2063616c6c20746869732066756e637460448201526234b7b760e91b606482015260840161016f565b610582848484610cd2565b600654604080516341025b3d60e11b815290515f926001600160a01b031691638204b67a9160048083019260209291908290030181865afa15801561078c573d5f5f3e3d5ffd5b505050506040513d601f19601f820116820180604052508101906107b09190610f71565b6001600160801b0316905090565b5f6107c881610a42565b60038290556107d8825f19610fab565b6107e3905f19610fd2565b6004555050565b5f918252602082815260408084206001600160a01b0393909316845291905290205460ff1690565b5f61081c81610a42565b50600255565b7f5b8b382ad6d95db02987b837e3fdc8ec0a744175ef19c16713bfc6a4e3bab62561084c81610a42565b610854610a18565b6001600160a01b0382165f81815260086020526040808220805490839055905190929083908381818185875af1925050503d805f81146108af576040519150601f19603f3d011682016040523d82523d5f602084013e6108b4565b606091505b50509050806108d55760405162461bcd60e51b815260040161016f90610f42565b60405182815233906001600160a01b038616907f82cfad5309d3f830bb786715bb42fac285de8744b262009559ae31ce925860089060200160405180910390a3505061092060018055565b5050565b5f8281526020819052604090206001015461093e81610a42565b6105828383610adb565b610950610a18565b335f818152600860205260408082208054908390559051909190839083908381818185875af1925050503d805f81146109a4576040519150601f19603f3d011682016040523d82523d5f602084013e6109a9565b606091505b50509050806109ca5760405162461bcd60e51b815260040161016f90610f42565b6040518281526001600160a01b0384169081907f82cfad5309d3f830bb786715bb42fac285de8744b262009559ae31ce925860089060200160405180910390a3505050610a1660018055565b565b600260015403610a3b57604051633ee5aeb560e01b815260040160405180910390fd5b6002600155565b61055b8133610d50565b5f610a5783836107ea565b610ad4575f838152602081815260408083206001600160a01b03861684529091529020805460ff19166001179055610a8c3390565b6001600160a01b0316826001600160a01b0316847f2f8788117e7eff1d82e926ec794901d17c78024a50270940304540a733656f0d60405160405180910390a4506001610481565b505f610481565b5f610ae683836107ea565b15610ad4575f838152602081815260408083206001600160a01b0386168085529252808320805460ff1916905551339286917ff6391f5c32d9c69d2a47ea670b442974b53935d1edc7fd64eb21e047a839171b9190a4506001610481565b5f5f60065f9054906101000a90046001600160a01b03166001600160a01b0316638204b67a6040518163ffffffff1660e01b8152600401602060405180830381865afa158015610b96573d5f5f3e3d5ffd5b505050506040513d601f19601f82011682018060405250810190610bba9190610f71565b9050806001600160801b0316341015610c155760405162461bcd60e51b815260206004820152601760248201527f4e6f7420656e6f7567682045544820666f722066656573000000000000000000604482015260640161016f565b60065f9054906101000a90046001600160a01b03166001600160a01b0316637b43155d826001600160801b03166040518263ffffffff1660e01b815260040160206040518083038185885af1158015610c70573d5f5f3e3d5ffd5b50505050506040513d601f19601f82011682018060405250810190610c959190610fe5565b604051909250339067ffffffffffffffff8416907fe720ed741f9af263ba9242f1a27691cfdd9b9cc300f1af46fb84bbf0163e057b905f90a35090565b60045481905f9082108015610cf15750600354610cef9083610fab565b155b90508015610d0257610d0285610d89565b6040805182151581526020810185905267ffffffffffffffff8716917f059eb4e787bc13566ba477974a7920d187a68a7f1b68eedcf6a5b68a137501be910160405180910390a25050505050565b610d5a82826107ea565b6109205760405163e2517d3f60e01b81526001600160a01b03821660048201526024810183905260440161016f565b67ffffffffffffffff81165f908152600760205260408120546002546001600160a01b0390911691906103e890610dc09047611000565b610dca9190611017565b6001600160a01b0383165f8181526008602052604090819020839055519192509067ffffffffffffffff8516907ff010d81e7b54178c8e9f4f476f112e639fed1896406ed85c9141e41bc633edb190610e269085815260200190565b60405180910390a3505050565b5f60208284031215610e43575f5ffd5b81356001600160e01b031981168114610e5a575f5ffd5b9392505050565b80356001600160a01b0381168114610e77575f5ffd5b919050565b5f60208284031215610e8c575f5ffd5b610e5a82610e61565b5f60208284031215610ea5575f5ffd5b5035919050565b5f5f60408385031215610ebd575f5ffd5b82359150610ecd60208401610e61565b90509250929050565b67ffffffffffffffff8116811461055b575f5ffd5b5f60208284031215610efb575f5ffd5b8135610e5a81610ed6565b5f5f5f60608486031215610f18575f5ffd5b8335610f2381610ed6565b9250610f3160208501610e61565b929592945050506040919091013590565b602080825260159082015274141c9a5e99481d1c985b9cd9995c8819985a5b1959605a1b604082015260600190565b5f60208284031215610f81575f5ffd5b81516001600160801b0381168114610e5a575f5ffd5b634e487b7160e01b5f52601260045260245ffd5b5f82610fb957610fb9610f97565b500690565b634e487b7160e01b5f52601160045260245ffd5b8181038181111561048157610481610fbe565b5f60208284031215610ff5575f5ffd5b8151610e5a81610ed6565b808202811582820484141761048157610481610fbe565b5f8261102557611025610f97565b50049056fea2646970667358221220c223ba407865102d11bfa2e1732e98851524cec69b6b7c9a2b21ed294234bd8364736f6c634300081c0033",
  "linkReferences": {},
  "deployedLinkReferences": {},
  "immutableReferences": {},
  "inputSourceName": "project/contracts/Jackpot.sol",
  "buildInfoId": "solc-0_8_28-9460293aa5e3d9ddfb462d6eec45d333e8977935"
}