{
  "_format": "hh3-artifact-1",
  "contractName": "KickTheMarket",
  "sourceName": "contracts/KickTheMarketV3.sol",
  "abi": [
    {
      "inputs": [
        {
          "internalType": "uint256",
          "name": "_mintPrice",
          "type": "uint256"
        },
        {
          "internalType": "address",
          "name": "_jackpotAddress",
          "type": "address"
        }
      ],
      "stateMutability": "nonpayable",
      "type": "constructor"
    },
    {
      "inputs": [],
      "name": "ECDSAInvalidSignature",
      "type": "error"
    },
    {
      "inputs": [
        {
          "internalType": "uint256",
          "name": "length",
          "type": "uint256"
        }
      ],
      "name": "ECDSAInvalidSignatureLength",
      "type": "error"
    },
    {
      "inputs": [
        {
          "internalType": "bytes32",
          "name": "s",
          "type": "bytes32"
        }
      ],
      "name": "ECDSAInvalidSignatureS",
      "type": "error"
    },
    {
      "inputs": [],
      "name": "ERC721EnumerableForbiddenBatchMint",
      "type": "error"
    },
    {
      "inputs": [
        {
          "internalType": "address",
          "name": "sender",
          "type": "address"
        },
        {
          "internalType": "uint256",
          "name": "tokenId",
          "type": "uint256"
        },
        {
          "internalType": "address",
          "name": "owner",
          "type": "address"
        }
      ],
      "name": "ERC721IncorrectOwner",
      "type": "error"
    },
    {
      "inputs": [
        {
          "internalType": "address",
          "name": "operator",
          "type": "address"
        },
        {
          "internalType": "uint256",
          "name": "tokenId",
          "type": "uint256"
        }
      ],
      "name": "ERC721InsufficientApproval",
      "type": "error"
    },
    {
      "inputs": [
        {
          "internalType": "address",
          "name": "approver",
          "type": "address"
        }
      ],
      "name": "ERC721InvalidApprover",
      "type": "error"
    },
    {
      "inputs": [
        {
          "internalType": "address",
          "name": "operator",
          "type": "address"
        }
      ],
      "name": "ERC721InvalidOperator",
      "type": "error"
    },
    {
      "inputs": [
        {
          "internalType": "address",
          "name": "owner",
          "type": "address"
        }
      ],
      "name": "ERC721InvalidOwner",
      "type": "error"
    },
    {
      "inputs": [
        {
          "internalType": "address",
          "name": "receiver",
          "type": "address"
        }
      ],
      "name": "ERC721InvalidReceiver",
      "type": "error"
    },
    {
      "inputs": [
        {
          "internalType": "address",
          "name": "sender",
          "type": "address"
        }
      ],
      "name": "ERC721InvalidSender",
      "type": "error"
    },
    {
      "inputs": [
        {
          "internalType": "uint256",
          "name": "tokenId",
          "type": "uint256"
        }
      ],
      "name": "ERC721NonexistentToken",
      "type": "error"
    },
    {
      "inputs": [
        {
          "internalType": "address",
          "name": "owner",
          "type": "address"
        },
        {
          "internalType": "uint256",
          "name": "index",
          "type": "uint256"
        }
      ],
      "name": "ERC721OutOfBoundsIndex",
      "type": "error"
    },
    {
      "inputs": [],
      "name": "ReentrancyGuardReentrantCall",
      "type": "error"
    },
    {
      "anonymous": false,
      "inputs": [
        {
          "indexed": true,
          "internalType": "address",
          "name": "owner",
          "type": "address"
        },
        {
          "indexed": true,
          "internalType": "address",
          "name": "approved",
          "type": "address"
        },
        {
          "indexed": true,
          "internalType": "uint256",
          "name": "tokenId",
          "type": "uint256"
        }
      ],
      "name": "Approval",
      "type": "event"
    },
    {
      "anonymous": false,
      "inputs": [
        {
          "indexed": true,
          "internalType": "address",
          "name": "owner",
          "type": "address"
        },
        {
          "indexed": true,
          "internalType": "address",
          "name": "operator",
          "type": "address"
        },
        {
          "indexed": false,
          "internalType": "bool",
          "name": "approved",
          "type": "bool"
        }
      ],
      "name": "ApprovalForAll",
      "type": "event"
    },
    {
      "anonymous": false,
      "inputs": [
        {
          "indexed": false,
          "internalType": "uint256",
          "name": "_fromTokenId",
          "type": "uint256"
        },
        {
          "indexed": false,
          "internalType": "uint256",
          "name": "_toTokenId",
          "type": "uint256"
        }
      ],
      "name": "BatchMetadataUpdate",
      "type": "event"
    },
    {
      "anonymous": false,
      "inputs": [
        {
          "indexed": false,
          "internalType": "uint256",
          "name": "_tokenId",
          "type": "uint256"
        }
      ],
      "name": "MetadataUpdate",
      "type": "event"
    },
    {
      "anonymous": false,
      "inputs": [
        {
          "indexed": true,
          "internalType": "uint256",
          "name": "tokenId",
          "type": "uint256"
        },
        {
          "indexed": true,
          "internalType": "address",
          "name": "to",
          "type": "address"
        },
        {
          "indexed": false,
          "internalType": "uint256",
          "name": "score",
          "type": "uint256"
        },
        {
          "indexed": false,
          "internalType": "uint256",
          "name": "anomalyLevel",
          "type": "uint256"
        },
        {
          "indexed": false,
          "internalType": "uint256",
          "name": "blackSwanLevel",
          "type": "uint256"
        },
        {
          "indexed": false,
          "internalType": "uint256",
          "name": "totalKicks",
          "type": "uint256"
        },
        {
          "indexed": false,
          "internalType": "bytes",
          "name": "proof",
          "type": "bytes"
        }
      ],
      "name": "Mint",
      "type": "event"
    },
    {
      "anonymous": false,
      "inputs": [
        {
          "indexed": true,
          "internalType": "uint256",
          "name": "tokenId",
          "type": "uint256"
        },
        {
          "indexed": true,
          "internalType": "uint256",
          "name": "week",
          "type": "uint256"
        },
        {
          "indexed": false,
          "internalType": "uint256",
          "name": "score",
          "type": "uint256"
        }
      ],
      "name": "NewTopScore",
      "type": "event"
    },
    {
      "anonymous": false,
      "inputs": [
        {
          "indexed": true,
          "internalType": "uint256",
          "name": "week",
          "type": "uint256"
        },
        {
          "indexed": true,
          "internalType": "address",
          "name": "winner",
          "type": "address"
        },
        {
          "indexed": false,
          "internalType": "uint256",
          "name": "amount",
          "type": "uint256"
        }
      ],
      "name": "PrizeClaimed",
      "type": "event"
    },
    {
      "anonymous": false,
      "inputs": [
        {
          "indexed": true,
          "internalType": "address",
          "name": "from",
          "type": "address"
        },
        {
          "indexed": true,
          "internalType": "address",
          "name": "to",
          "type": "address"
        },
        {
          "indexed": true,
          "internalType": "uint256",
          "name": "tokenId",
          "type": "uint256"
        }
      ],
      "name": "Transfer",
      "type": "event"
    },
    {
      "anonymous": false,
      "inputs": [
        {
          "indexed": true,
          "internalType": "uint256",
          "name": "week",
          "type": "uint256"
        },
        {
          "indexed": false,
          "internalType": "uint256",
          "name": "score",
          "type": "uint256"
        },
        {
          "indexed": true,
          "internalType": "uint256",
          "name": "tokenId",
          "type": "uint256"
        },
        {
          "indexed": false,
          "internalType": "uint256",
          "name": "prize",
          "type": "uint256"
        },
        {
          "indexed": true,
          "internalType": "address",
          "name": "player",
          "type": "address"
        }
      ],
      "name": "WeeklyWinner",
      "type": "event"
    },
    {
      "stateMutability": "payable",
      "type": "fallback"
    },
    {
      "inputs": [],
      "name": "TIMESTAMP_ZERO",
      "outputs": [
        {
          "internalType": "uint256",
          "name": "",
          "type": "uint256"
        }
      ],
      "stateMutability": "view",
      "type": "function"
    },
    {
      "inputs": [
        {
          "internalType": "address",
          "name": "to",
          "type": "address"
        },
        {
          "internalType": "uint256",
          "name": "tokenId",
          "type": "uint256"
        }
      ],
      "name": "approve",
      "outputs": [],
      "stateMutability": "nonpayable",
      "type": "function"
    },
    {
      "inputs": [],
      "name": "backendSigner",
      "outputs": [
        {
          "internalType": "address",
          "name": "",
          "type": "address"
        }
      ],
      "stateMutability": "view",
      "type": "function"
    },
    {
      "inputs": [
        {
          "internalType": "address",
          "name": "owner",
          "type": "address"
        }
      ],
      "name": "balanceOf",
      "outputs": [
        {
          "internalType": "uint256",
          "name": "",
          "type": "uint256"
        }
      ],
      "stateMutability": "view",
      "type": "function"
    },
    {
      "inputs": [
        {
          "internalType": "uint256",
          "name": "tokenId",
          "type": "uint256"
        }
      ],
      "name": "burn",
      "outputs": [],
      "stateMutability": "nonpayable",
      "type": "function"
    },
    {
      "inputs": [],
      "name": "claimJackpot",
      "outputs": [],
      "stateMutability": "nonpayable",
      "type": "function"
    },
    {
      "inputs": [
        {
          "internalType": "uint256",
          "name": "week",
          "type": "uint256"
        }
      ],
      "name": "claimWeekWinner",
      "outputs": [],
      "stateMutability": "nonpayable",
      "type": "function"
    },
    {
      "inputs": [
        {
          "internalType": "uint256",
          "name": "tokenId",
          "type": "uint256"
        }
      ],
      "name": "getApproved",
      "outputs": [
        {
          "internalType": "address",
          "name": "",
          "type": "address"
        }
      ],
      "stateMutability": "view",
      "type": "function"
    },
    {
      "inputs": [
        {
          "internalType": "address",
          "name": "owner",
          "type": "address"
        },
        {
          "internalType": "address",
          "name": "operator",
          "type": "address"
        }
      ],
      "name": "isApprovedForAll",
      "outputs": [
        {
          "internalType": "bool",
          "name": "",
          "type": "bool"
        }
      ],
      "stateMutability": "view",
      "type": "function"
    },
    {
      "inputs": [
        {
          "internalType": "uint256",
          "name": "week",
          "type": "uint256"
        }
      ],
      "name": "maxScores",
      "outputs": [
        {
          "internalType": "uint256",
          "name": "score",
          "type": "uint256"
        },
        {
          "internalType": "uint256",
          "name": "tokenId",
          "type": "uint256"
        },
        {
          "internalType": "uint256",
          "name": "prize",
          "type": "uint256"
        },
        {
          "internalType": "address",
          "name": "player",
          "type": "address"
        },
        {
          "internalType": "bool",
          "name": "claimed",
          "type": "bool"
        }
      ],
      "stateMutability": "view",
      "type": "function"
    },
    {
      "inputs": [
        {
          "internalType": "string",
          "name": "tokenUri",
          "type": "string"
        },
        {
          "internalType": "uint256",
          "name": "score",
          "type": "uint256"
        },
        {
          "internalType": "uint256",
          "name": "anomalyLevel",
          "type": "uint256"
        },
        {
          "internalType": "uint256",
          "name": "blackSwanLevel",
          "type": "uint256"
        },
        {
          "internalType": "uint256",
          "name": "totalKicks",
          "type": "uint256"
        },
        {
          "internalType": "bytes",
          "name": "proof",
          "type": "bytes"
        }
      ],
      "name": "mint",
      "outputs": [
        {
          "internalType": "uint256",
          "name": "",
          "type": "uint256"
        }
      ],
      "stateMutability": "payable",
      "type": "function"
    },
    {
      "inputs": [],
      "name": "mintPrice",
      "outputs": [
        {
          "internalType": "uint256",
          "name": "",
          "type": "uint256"
        }
      ],
      "stateMutability": "view",
      "type": "function"
    },
    {
      "inputs": [],
      "name": "name",
      "outputs": [
        {
          "internalType": "string",
          "name": "",
          "type": "string"
        }
      ],
      "stateMutability": "view",
      "type": "function"
    },
    {
      "inputs": [
        {
          "internalType": "uint256",
          "name": "tokenId",
          "type": "uint256"
        }
      ],
      "name": "ownerOf",
      "outputs": [
        {
          "internalType": "address",
          "name": "",
          "type": "address"
        }
      ],
      "stateMutability": "view",
      "type": "function"
    },
    {
      "inputs": [
        {
          "internalType": "address",
          "name": "from",
          "type": "address"
        },
        {
          "internalType": "address",
          "name": "to",
          "type": "address"
        },
        {
          "internalType": "uint256",
          "name": "tokenId",
          "type": "uint256"
        }
      ],
      "name": "safeTransferFrom",
      "outputs": [],
      "stateMutability": "nonpayable",
      "type": "function"
    },
    {
      "inputs": [
        {
          "internalType": "address",
          "name": "from",
          "type": "address"
        },
        {
          "internalType": "address",
          "name": "to",
          "type": "address"
        },
        {
          "internalType": "uint256",
          "name": "tokenId",
          "type": "uint256"
        },
        {
          "internalType": "bytes",
          "name": "data",
          "type": "bytes"
        }
      ],
      "name": "safeTransferFrom",
      "outputs": [],
      "stateMutability": "nonpayable",
      "type": "function"
    },
    {
      "inputs": [
        {
          "internalType": "uint256",
          "name": "tokenId",
          "type": "uint256"
        }
      ],
      "name": "scores",
      "outputs": [
        {
          "internalType": "uint256",
          "name": "score",
          "type": "uint256"
        },
        {
          "internalType": "uint256",
          "name": "anomalyLevel",
          "type": "uint256"
        },
        {
          "internalType": "uint256",
          "name": "blackSwanLevel",
          "type": "uint256"
        },
        {
          "internalType": "uint256",
          "name": "totalKicks",
          "type": "uint256"
        },
        {
          "internalType": "address",
          "name": "player",
          "type": "address"
        }
      ],
      "stateMutability": "view",
      "type": "function"
    },
    {
      "inputs": [
        {
          "internalType": "address",
          "name": "operator",
          "type": "address"
        },
        {
          "internalType": "bool",
          "name": "approved",
          "type": "bool"
        }
      ],
      "name": "setApprovalForAll",
      "outputs": [],
      "stateMutability": "nonpayable",
      "type": "function"
    },
    {
      "inputs": [
        {
          "internalType": "bytes4",
          "name": "interfaceId",
          "type": "bytes4"
        }
      ],
      "name": "supportsInterface",
      "outputs": [
        {
          "internalType": "bool",
          "name": "",
          "type": "bool"
        }
      ],
      "stateMutability": "view",
      "type": "function"
    },
    {
      "inputs": [],
      "name": "symbol",
      "outputs": [
        {
          "internalType": "string",
          "name": "",
          "type": "string"
        }
      ],
      "stateMutability": "view",
      "type": "function"
    },
    {
      "inputs": [
        {
          "internalType": "uint256",
          "name": "index",
          "type": "uint256"
        }
      ],
      "name": "tokenByIndex",
      "outputs": [
        {
          "internalType": "uint256",
          "name": "",
          "type": "uint256"
        }
      ],
      "stateMutability": "view",
      "type": "function"
    },
    {
      "inputs": [
        {
          "internalType": "address",
          "name": "owner",
          "type": "address"
        },
        {
          "internalType": "uint256",
          "name": "index",
          "type": "uint256"
        }
      ],
      "name": "tokenOfOwnerByIndex",
      "outputs": [
        {
          "internalType": "uint256",
          "name": "",
          "type": "uint256"
        }
      ],
      "stateMutability": "view",
      "type": "function"
    },
    {
      "inputs": [
        {
          "internalType": "uint256",
          "name": "tokenId",
          "type": "uint256"
        }
      ],
      "name": "tokenURI",
      "outputs": [
        {
          "internalType": "string",
          "name": "",
          "type": "string"
        }
      ],
      "stateMutability": "view",
      "type": "function"
    },
    {
      "inputs": [],
      "name": "totalSupply",
      "outputs": [
        {
          "internalType": "uint256",
          "name": "",
          "type": "uint256"
        }
      ],
      "stateMutability": "view",
      "type": "function"
    },
    {
      "inputs": [
        {
          "internalType": "address",
          "name": "from",
          "type": "address"
        },
        {
          "internalType": "address",
          "name": "to",
          "type": "address"
        },
        {
          "internalType": "uint256",
          "name": "tokenId",
          "type": "uint256"
        }
      ],
      "name": "transferFrom",
      "outputs": [],
      "stateMutability": "nonpayable",
      "type": "function"
    },
    {
      "stateMutability": "payable",
      "type": "receive"
    }
  ],
  "bytecode": "0x60c060405234610380576125576040813803918261001c81610384565b9384928339810103126103805780516020909101516001600160a01b03811691908290036103805761004e6040610384565b91600f83526e12da58dac8151a194813585c9ad95d608a1b60208401526100756040610384565b60038152624b544d60e81b602082015283519092906001600160401b038111610294575f54600181811c91168015610376575b602082101461027657601f8111610314575b50602094601f82116001146102b3579481929394955f926102a8575b50508160011b915f199060031b1c1916175f555b82516001600160401b03811161029457600154600181811c9116801561028a575b602082101461027657601f8111610213575b506020601f82116001146101b057819293945f926101a5575b50508160011b915f199060031b1c1916176001555b6001600b554260a05233608052600d55600e80546001600160a01b0319169190911790556040516121ad90816103aa823960805181818161059d0152611089015260a05181818161031c015281816107c3015261115b0152f35b015190505f80610136565b601f1982169060015f52805f20915f5b8181106101fb575095836001959697106101e3575b505050811b0160015561014b565b01515f1960f88460031b161c191690555f80806101d5565b9192602060018192868b0151815501940192016101c0565b60015f527fb10e2d527612073b26eecdfd717e6a320cf44b4afac2b0732d9fcbe2b7fa0cf6601f830160051c8101916020841061026c575b601f0160051c01905b818110610261575061011d565b5f8155600101610254565b909150819061024b565b634e487b7160e01b5f52602260045260245ffd5b90607f169061010b565b634e487b7160e01b5f52604160045260245ffd5b015190505f806100d6565b601f198216955f8052805f20915f5b8881106102fc575083600195969798106102e4575b505050811b015f556100ea565b01515f1960f88460031b161c191690555f80806102d7565b919260206001819286850151815501940192016102c2565b5f80527f290decd9548b62a8d60345a988386fc84ba6bc95484008f6362f93160ef3e563601f830160051c8101916020841061036c575b601f0160051c01905b81811061036157506100ba565b5f8155600101610354565b909150819061034b565b90607f16906100a8565b5f80fd5b6040519190601f01601f191682016001600160401b038111838210176102945760405256fe6080806040526004361015610097575b5036156100525760405162461bcd60e51b815260206004820152601460248201527311985b1b189858dac81b9bdd08185b1b1bddd95960621b6044820152606490fd5b60405162461bcd60e51b815260206004820152601760248201527f5265636569766520455448206e6f7420616c6c6f7765640000000000000000006044820152606490fd5b5f905f3560e01c90816301ffc9a7146116485750806306fdde03146115a6578063081812fc1461156a578063095ea7b31461148057806318160ddd1461146357806323b872dd1461144c5780632ee691a3146113ee5780632f745c591461137c57806342842e0e1461134d57806342966c681461132e5780634384f436146111365780634f6ccce7146110e85780636352211e146110b857806365d65e86146110745780636817c76c1461105757806370a082311461102c57806395d89b4114610f62578063a22cb46514610ec7578063a656cb3d1461043b578063ad8c7031146103da578063b88d4fde14610377578063c87b56dd1461033f578063dede511f14610304578063e288ea641461020c5763e985e9c50361000f57346102095760403660031901126102095760406101cd61170b565b916101d6611721565b9260018060a01b031681526005602052209060018060a01b03165f52602052602060ff60405f2054166040519015158152f35b80fd5b5034610209578060031936011261020957610225611be0565b600e546040516335eaa28560e11b815233600482015282916001600160a01b031690602081602481855afa9081156102f95783916102c0575b5061026d575b506001600b5580f35b803b156102bd5781809160246040518094819363c574aa5760e01b83523360048401525af180156102b2571561026457816102a7916117a1565b61020957805f610264565b6040513d84823e3d90fd5b50fd5b9250506020823d6020116102f1575b816102dc602093836117a1565b810103126102ed578291515f61025e565b5f80fd5b3d91506102cf565b6040513d85823e3d90fd5b503461020957806003193601126102095760206040517f00000000000000000000000000000000000000000000000000000000000000008152f35b50346102095760203660031901126102095761037361035f600435611d0f565b6040519182916020835260208301906116e7565b0390f35b50346102095760803660031901126102095761039161170b565b610399611721565b906044356064359267ffffffffffffffff84116103d6576103c16103d3943690600401611815565b926103cd83838361186b565b33611c00565b80f35b8480fd5b503461020957602036600319011261020957604060a091600435815260106020522060ff815491600181015490600360028201549101549160405194855260208501526040840152600180851b0381166060840152831c1615156080820152f35b5060c03660031901126102ed5760043567ffffffffffffffff81116102ed57366023820112156102ed576104799036906024816004013591016117df565b604435919060643560243560843560a43567ffffffffffffffff81116102ed576104a7903690600401611815565b926104b0611be0565b8215610e9557845115610e5d57600d54600e546040516310bd6e5760e31b81529190602090839060049082906001600160a01b03165afa908115610d65575f91610e27575b6104ff9250611b9f565b3410610df157600c54945f198614610ddd5760018601600c5560405160208101904682526105506014604083865180602089018484015e81013360601b838201520301600b198101845201826117a1565b5190207f19457468657265756d205369676e6564204d6573736167653a0a3332000000005f5280601c5261059361058a87603c5f20612047565b90929192612081565b6001600160a01b037f00000000000000000000000000000000000000000000000000000000000000008116911603610da457805f52601160205260ff60405f205416610d70575f52601160205260405f20600160ff198254161790556105fb600d5434611b06565b600e546001600160a01b0316803b156102ed575f906024604051809481936324e3b23160e11b83523360048401525af18015610d6557610d50575b50858752600a602052604087209080519067ffffffffffffffff8211610d3c5781906106628454611833565b601f8111610cec575b50602090601f8311600114610c8a578a92610c7f575b50508160011b915f199060031b1c19161790555b7ff8e1a15aba9398e019f0b49df1a4fde98ee17ae345cb5f6b5e2c27f5033e8ce76020604051878152a16020966040516106cf89826117a1565b8781523315610c6b578688526002895260408820546001600160a01b031680158015919082610c39575b33808c5260038d526040808d20805460010190558b8d5260028e528c2080546001600160a01b031916821790558a90837fddf252ad1be2c89b69c2b068fc378daa952ba7f163c4a11628f55a4df523b3ef8e80a415610bbf57600854898b5260098c528060408c2055600160401b811015610bab578961078282600161079a9401600855611b42565b90919082549060031b91821b915f19901b1916179055565b338103610b5c575b50610b48578890333b610a54575b5050908596949593929162093a806107e87f000000000000000000000000000000000000000000000000000000000000000042611b06565b049586815260108a526040812080548681106108ed575b507f9cc5e8a9387ad4bbf6f7ee4537e325b8a16fad3b7a0c0b95af015759e6ddf39d9697506108366002600d549201918254611b9f565b90556004878b6040519361084985611771565b888552818501868152604080870192898452600f60608901958c875260808a0197338952835252209551865551600186015551600285015551600384015560018060a01b0390511691019060018060a01b03166bffffffffffffffffffffffff60a01b825416179055604051938452888401526040830152606082015260a06080820152806108dd339560a08301906116e7565b0390a36001600b55604051908152f35b1580610a4a575b61096f575b858155600181018790556003810180546001600160a01b0319163317905560405186815296977f9cc5e8a9387ad4bbf6f7ee4537e325b8a16fad3b7a0c0b95af015759e6ddf39d9789907f859d305634acc5fd89746e880341839923f8168c750abe2ec84dbab7ab8c175a908e90a387966107ff565b919395509193955f198101818111610a3657918391837f9cc5e8a9387ad4bbf6f7ee4537e325b8a16fad3b7a0c0b95af015759e6ddf39d9896948c9a98965260108d528c60408520917fc3f4fbeb2721478cae273a5fabc46a4bf4c35e1abad2c6df14ebb0ea79a83c8e60408051946109e786611771565b8054908187526001810154958681890152600360028301549283868b0152015497608060ff60018060a01b038b169a8b606085015260a01c1615159101528351928352820152a49796506108f9565b634e487b7160e01b84526011600452602484fd5b50600188116108f4565b90610a8d9160405180938192630a85bd0160e11b83523360048401528c60248401528b60448401526080606484015260848301906116e7565b03818b335af1889181610b04575b50610acb578888610aaa611b13565b8051929083610ac657633250574960e11b835233600452602483fd5b019050fd5b959694956001600160e01b03191663757a42ff60e11b01610af15793959493875f6107b0565b633250574960e11b855233600452602485fd5b9091508981813d8311610b41575b610b1c81836117a1565b81010312610b3d57516001600160e01b031981168103610b3d57905f610a9b565b8880fd5b503d610b12565b6339e3563760e11b88526004889052602488fd5b610b6533611b6e565b5f198101908111610b9757338b5260068c5260408b20818c528c528960408c2055898b5260078c5260408b20556107a2565b634e487b7160e01b8b52601160045260248bfd5b634e487b7160e01b8b52604160045260248bfd5b33811461079a578a610bd082611b6e565b8a8c526007825260408c2054838d52600683528c6040812093838303610c0f575b508c91505260078d528b60408120558b528b5289604081205561079a565b818460079352858252604081205490848152868352816040822055525260408d20555f8c8e610bf1565b5f8a815260046020526040902080546001600160a01b0319169055818b5260038c5260408b2080545f190190556106f9565b633250574960e11b88526004889052602488fd5b015190505f80610681565b848b52818b209250601f1984168b5b818110610cd45750908460019594939210610cbc575b505050811b019055610695565b01515f1960f88460031b161c191690555f8080610caf565b92936020600181928786015181550195019301610c99565b909150838a5260208a20601f840160051c81019160208510610d32575b90601f859493920160051c01905b818110610d24575061066b565b8b8155849350600101610d17565b9091508190610d09565b634e487b7160e01b89526041600452602489fd5b610d5d9197505f906117a1565b5f955f610636565b6040513d5f823e3d90fd5b60405162461bcd60e51b815260206004820152600c60248201526b105b1c9958591e481d5cd95960a21b6044820152606490fd5b60405162461bcd60e51b8152602060048201526011602482015270496e76616c6964207369676e617475726560781b6044820152606490fd5b634e487b7160e01b5f52601160045260245ffd5b60405162461bcd60e51b815260206004820152600e60248201526d09cdee840cadcdeeaced0408aa8960931b6044820152606490fd5b90506020823d602011610e55575b81610e42602093836117a1565b810103126102ed576104ff9151906104f5565b3d9150610e35565b60405162461bcd60e51b815260206004820152601060248201526f4d697373696e6720546f6b656e55726960801b6044820152606490fd5b60405162461bcd60e51b815260206004820152600a6024820152695a65726f2053636f726560b01b6044820152606490fd5b346102ed5760403660031901126102ed57610ee061170b565b602435908115158092036102ed576001600160a01b0316908115610f4f57335f52600560205260405f20825f5260205260405f2060ff1981541660ff83161790556040519081527f17307eab39ab6107e8899845ad3d59bd9653f200f220920489ca2b5937696c3160203392a3005b50630b61174360e31b5f5260045260245ffd5b346102ed575f3660031901126102ed576040515f600154610f8281611833565b80845290600181169081156110085750600114610faa575b6103738361035f818503826117a1565b91905060015f527fb10e2d527612073b26eecdfd717e6a320cf44b4afac2b0732d9fcbe2b7fa0cf6915f905b808210610fee5750909150810160200161035f610f9a565b919260018160209254838588010152019101909291610fd6565b60ff191660208086019190915291151560051b8401909101915061035f9050610f9a565b346102ed5760203660031901126102ed57602061104f61104a61170b565b611b6e565b604051908152f35b346102ed575f3660031901126102ed576020600d54604051908152f35b346102ed575f3660031901126102ed576040517f00000000000000000000000000000000000000000000000000000000000000006001600160a01b03168152602090f35b346102ed5760203660031901126102ed5760206110d6600435611bac565b6040516001600160a01b039091168152f35b346102ed5760203660031901126102ed5760043560085481101561112057611111602091611b42565b90549060031b1c604051908152f35b63295f44f760e21b5f525f60045260245260445ffd5b346102ed5760203660031901126102ed57600435611152611be0565b62093a806111807f000000000000000000000000000000000000000000000000000000000000000042611b06565b048110156112f957805f52601060205260405f209060038201805492600160ff8560a01c161515146112c25760020154908115611290576001600160a01b03841693841561125c5760ff60a01b1916600160a01b1790555f80808084875af16111e7611b13565b501561121f5760207f4aa95f981a8337cb337de335b965507da0879c3b49f799d20058e913f5ad2c2691604051908152a36001600b55005b60405162461bcd60e51b8152602060048201526015602482015274141c9a5e9948151c985b9cd9995c8811985a5b1959605a1b6044820152606490fd5b60405162461bcd60e51b815260206004820152600c60248201526b5a65726f204164647265737360a01b6044820152606490fd5b60405162461bcd60e51b815260206004820152600a6024820152695a65726f205072697a6560b01b6044820152606490fd5b60405162461bcd60e51b815260206004820152600f60248201526e105b1c9958591e4810db185a5b5959608a1b6044820152606490fd5b60405162461bcd60e51b815260206004820152600d60248201526c4f6e20676f696e67207765656b60981b6044820152606490fd5b346102ed5760203660031901126102ed5761134b33600435611dd4565b005b346102ed5761134b61135e36611737565b906040519261136e6020856117a1565b5f84526103cd83838361186b565b346102ed5760403660031901126102ed5761139561170b565b602435906113a281611b6e565b8210156113d15760018060a01b03165f52600660205260405f20905f52602052602060405f2054604051908152f35b63295f44f760e21b5f5260018060a01b031660045260245260445ffd5b346102ed5760203660031901126102ed576004355f52600f60205260a060405f2080549060018101549060028101546003820154916004600180881b0391015416926040519485526020850152604084015260608301526080820152f35b346102ed5761134b61145d36611737565b9161186b565b346102ed575f3660031901126102ed576020600854604051908152f35b346102ed5760403660031901126102ed5761149961170b565b6024356114a581611bac565b33151580611557575b8061152a575b6115175781906001600160a01b0384811691167f8c5be1e5ebec7d5bd14f71427d1e84f3dd0314c0f7b2291e5b200ac8c7c3b9255f80a45f90815260046020526040902080546001600160a01b0319166001600160a01b03909216919091179055005b63a9fbf51f60e01b5f523360045260245ffd5b506001600160a01b0381165f90815260056020908152604080832033845290915290205460ff16156114b4565b506001600160a01b0381163314156114ae565b346102ed5760203660031901126102ed5760043561158781611bac565b505f526004602052602060018060a01b0360405f205416604051908152f35b346102ed575f3660031901126102ed576040515f5f546115c581611833565b808452906001811690811561100857506001146115ec576103738361035f818503826117a1565b5f8080527f290decd9548b62a8d60345a988386fc84ba6bc95484008f6362f93160ef3e563939250905b80821061162e5750909150810160200161035f610f9a565b919260018160209254838588010152019101909291611616565b346102ed5760203660031901126102ed576004359063ffffffff60e01b82168092036102ed57602091632483248360e11b811490811561168a575b5015158152f35b63780e9d6360e01b8114915081156116a4575b5083611683565b6380ac58cd60e01b8114915081156116d6575b81156116c5575b508361169d565b6301ffc9a760e01b149050836116be565b635b5e139f60e01b811491506116b7565b805180835260209291819084018484015e5f828201840152601f01601f1916010190565b600435906001600160a01b03821682036102ed57565b602435906001600160a01b03821682036102ed57565b60609060031901126102ed576004356001600160a01b03811681036102ed57906024356001600160a01b03811681036102ed579060443590565b60a0810190811067ffffffffffffffff82111761178d57604052565b634e487b7160e01b5f52604160045260245ffd5b90601f8019910116810190811067ffffffffffffffff82111761178d57604052565b67ffffffffffffffff811161178d57601f01601f191660200190565b9291926117eb826117c3565b916117f960405193846117a1565b8294818452818301116102ed578281602093845f960137010152565b9080601f830112156102ed57816020611830933591016117df565b90565b90600182811c92168015611861575b602083101461184d57565b634e487b7160e01b5f52602260045260245ffd5b91607f1691611842565b9091906001600160a01b0383168015611af3575f838152600260205260409020546001600160a01b03169333151580611a63575b5084158015611a30575b825f52600360205260405f2060018154019055845f52600260205260405f20836bffffffffffffffffffffffff60a01b8254161790558483877fddf252ad1be2c89b69c2b068fc378daa952ba7f163c4a11628f55a4df523b3ef5f80a4156119b357600854845f5260096020528060405f2055600160401b81101561178d578461078282600161193c9401600855611b42565b818503611973575b50506001600160a01b031680830361195b57505050565b6364283d7b60e01b5f5260045260245260445260645ffd5b61197c90611b6e565b5f19810191908211610ddd575f52600660205260405f20815f526020528260405f2055825f52600760205260405f20555f80611944565b84821461193c576119c385611b6e565b845f52600760205260405f205490865f52600660205260405f2091818103611a05575b50855f5260076020525f60408120555f526020525f604081205561193c565b815f528260205260405f2054815f52836020528060405f20555f52600760205260405f20555f6119e6565b5f85815260046020526040902080546001600160a01b0319169055855f52600360205260405f205f1981540190556118a9565b80611aa2575b15611a74575f61189f565b8385611a8c57637e27328960e01b5f5260045260245ffd5b63177e802f60e01b5f523360045260245260445ffd5b503385148015611ad1575b80611a6957505f848152600460205260409020546001600160a01b03163314611a69565b505f85815260056020908152604080832033845290915290205460ff16611aad565b633250574960e11b5f525f60045260245ffd5b91908203918211610ddd57565b3d15611b3d573d90611b24826117c3565b91611b3260405193846117a1565b82523d5f602084013e565b606090565b600854811015611b5a5760085f5260205f2001905f90565b634e487b7160e01b5f52603260045260245ffd5b6001600160a01b03168015611b8c575f52600360205260405f205490565b6322718ad960e21b5f525f60045260245ffd5b91908201809211610ddd57565b5f818152600260205260409020546001600160a01b0316908115611bce575090565b637e27328960e01b5f5260045260245ffd5b6002600b5414611bf1576002600b55565b633ee5aeb560e01b5f5260045ffd5b823b611c0e575b5050505050565b604051630a85bd0160e11b81526001600160a01b039182166004820152918116602483015260448201939093526080606482015291169160209082908190611c5a9060848301906116e7565b03815f865af15f9181611cca575b50611c965750611c76611b13565b80519081611c915782633250574960e11b5f5260045260245ffd5b602001fd5b6001600160e01b03191663757a42ff60e11b01611cb857505f80808080611c07565b633250574960e11b5f5260045260245ffd5b9091506020813d602011611d07575b81611ce6602093836117a1565b810103126102ed57516001600160e01b0319811681036102ed57905f611c68565b3d9150611cd9565b611d1881611bac565b505f52600a60205260405f2060405190815f825492611d3684611833565b8084529360018116908115611db25750600114611d6e575b50611d5b925003826117a1565b5f604051611d6a6020826117a1565b5290565b90505f9291925260205f20905f915b818310611d96575050906020611d5b928201015f611d4e565b6020919350806001915483858801015201910190918392611d7d565b905060209250611d5b94915060ff191682840152151560051b8201015f611d4e565b5f818152600260205260409020546001600160a01b03908116921680151580611fba575b5050811580159081611f87575b5f83815260026020526040812080546001600160a01b03191690558390857fddf252ad1be2c89b69c2b068fc378daa952ba7f163c4a11628f55a4df523b3ef8280a415611f0c5750600854815f5260096020528060405f2055600160401b81101561178d5781610782826001611e7e9401600855611b42565b6008545f198101908111610ddd57815f526009602052611ea260405f205491611b42565b90549060031b1c611eb68161078284611b42565b5f52600960205260405f20555f5260096020525f60408120556008548015611ef8575f1901611ee481611b42565b8154905f199060031b1b1916905560085590565b634e487b7160e01b5f52603160045260245ffd5b15611e7e57611f1a82611b6e565b815f52600760205260405f205490835f52600660205260405f2091818103611f5c575b50825f5260076020525f60408120555f526020525f6040812055611e7e565b815f528260205260405f2054815f52836020528060405f20555f52600760205260405f20555f611f3d565b5f83815260046020526040902080546001600160a01b0319169055835f52600360205260405f205f198154019055611e05565b80611ff8575b15611fcb5780611df8565b82611fe35750637e27328960e01b5f5260045260245ffd5b63177e802f60e01b5f5260045260245260445ffd5b508083148015612027575b80611fc057505f828152600460205260409020546001600160a01b03168114611fc0565b50825f52600560205260405f20815f5260205260ff60405f205416612003565b8151919060418303612077576120709250602082015190606060408401519301515f1a906120f5565b9192909190565b50505f9160029190565b60048110156120e15780612093575050565b600181036120aa5763f645eedf60e01b5f5260045ffd5b600281036120c5575063fce698f760e01b5f5260045260245ffd5b6003146120cf5750565b6335e2f38360e21b5f5260045260245ffd5b634e487b7160e01b5f52602160045260245ffd5b91907f7fffffffffffffffffffffffffffffff5d576e7357a4501ddfe92f46681b20a0841161216c579160209360809260ff5f9560405194855216868401526040830152606082015282805260015afa15610d65575f516001600160a01b0381161561216257905f905f90565b505f906001905f90565b5050505f916003919056fea26469706673582212209d42105b2a8097ff282ff093f6ab3607821f1d647a77b50300c9e178682c8ad164736f6c634300081c0033",
  "linkReferences": {},
  "deployedLinkReferences": {},
  "immutableReferences": {
    "7525": [
      {
        "length": 32,
        "start": 1437
      },
      {
        "length": 32,
        "start": 4233
      }
    ],
    "7532": [
      {
        "length": 32,
        "start": 796
      },
      {
        "length": 32,
        "start": 1987
      },
      {
        "length": 32,
        "start": 4443
      }
    ]
  },
  "inputSourceName": "project/contracts/KickTheMarketV3.sol",
  "buildInfoId": "solc-0_8_28-37fbfdc6dfc15c427321e2a7ca03618744b53db4"
}