{
  "_format": "hh3-artifact-1",
  "contractName": "KickTheMarket",
  "sourceName": "contracts/KickTheMarketV2.sol",
  "abi": [
    {
      "inputs": [
        {
          "internalType": "uint256",
          "name": "_mintPrice",
          "type": "uint256"
        },
        {
          "internalType": "address",
          "name": "_jackpotAddress",
          "type": "address"
        }
      ],
      "stateMutability": "nonpayable",
      "type": "constructor"
    },
    {
      "inputs": [],
      "name": "ECDSAInvalidSignature",
      "type": "error"
    },
    {
      "inputs": [
        {
          "internalType": "uint256",
          "name": "length",
          "type": "uint256"
        }
      ],
      "name": "ECDSAInvalidSignatureLength",
      "type": "error"
    },
    {
      "inputs": [
        {
          "internalType": "bytes32",
          "name": "s",
          "type": "bytes32"
        }
      ],
      "name": "ECDSAInvalidSignatureS",
      "type": "error"
    },
    {
      "inputs": [],
      "name": "ERC721EnumerableForbiddenBatchMint",
      "type": "error"
    },
    {
      "inputs": [
        {
          "internalType": "address",
          "name": "sender",
          "type": "address"
        },
        {
          "internalType": "uint256",
          "name": "tokenId",
          "type": "uint256"
        },
        {
          "internalType": "address",
          "name": "owner",
          "type": "address"
        }
      ],
      "name": "ERC721IncorrectOwner",
      "type": "error"
    },
    {
      "inputs": [
        {
          "internalType": "address",
          "name": "operator",
          "type": "address"
        },
        {
          "internalType": "uint256",
          "name": "tokenId",
          "type": "uint256"
        }
      ],
      "name": "ERC721InsufficientApproval",
      "type": "error"
    },
    {
      "inputs": [
        {
          "internalType": "address",
          "name": "approver",
          "type": "address"
        }
      ],
      "name": "ERC721InvalidApprover",
      "type": "error"
    },
    {
      "inputs": [
        {
          "internalType": "address",
          "name": "operator",
          "type": "address"
        }
      ],
      "name": "ERC721InvalidOperator",
      "type": "error"
    },
    {
      "inputs": [
        {
          "internalType": "address",
          "name": "owner",
          "type": "address"
        }
      ],
      "name": "ERC721InvalidOwner",
      "type": "error"
    },
    {
      "inputs": [
        {
          "internalType": "address",
          "name": "receiver",
          "type": "address"
        }
      ],
      "name": "ERC721InvalidReceiver",
      "type": "error"
    },
    {
      "inputs": [
        {
          "internalType": "address",
          "name": "sender",
          "type": "address"
        }
      ],
      "name": "ERC721InvalidSender",
      "type": "error"
    },
    {
      "inputs": [
        {
          "internalType": "uint256",
          "name": "tokenId",
          "type": "uint256"
        }
      ],
      "name": "ERC721NonexistentToken",
      "type": "error"
    },
    {
      "inputs": [
        {
          "internalType": "address",
          "name": "owner",
          "type": "address"
        },
        {
          "internalType": "uint256",
          "name": "index",
          "type": "uint256"
        }
      ],
      "name": "ERC721OutOfBoundsIndex",
      "type": "error"
    },
    {
      "inputs": [],
      "name": "ReentrancyGuardReentrantCall",
      "type": "error"
    },
    {
      "anonymous": false,
      "inputs": [
        {
          "indexed": true,
          "internalType": "address",
          "name": "owner",
          "type": "address"
        },
        {
          "indexed": true,
          "internalType": "address",
          "name": "approved",
          "type": "address"
        },
        {
          "indexed": true,
          "internalType": "uint256",
          "name": "tokenId",
          "type": "uint256"
        }
      ],
      "name": "Approval",
      "type": "event"
    },
    {
      "anonymous": false,
      "inputs": [
        {
          "indexed": true,
          "internalType": "address",
          "name": "owner",
          "type": "address"
        },
        {
          "indexed": true,
          "internalType": "address",
          "name": "operator",
          "type": "address"
        },
        {
          "indexed": false,
          "internalType": "bool",
          "name": "approved",
          "type": "bool"
        }
      ],
      "name": "ApprovalForAll",
      "type": "event"
    },
    {
      "anonymous": false,
      "inputs": [
        {
          "indexed": false,
          "internalType": "uint256",
          "name": "_fromTokenId",
          "type": "uint256"
        },
        {
          "indexed": false,
          "internalType": "uint256",
          "name": "_toTokenId",
          "type": "uint256"
        }
      ],
      "name": "BatchMetadataUpdate",
      "type": "event"
    },
    {
      "anonymous": false,
      "inputs": [
        {
          "indexed": false,
          "internalType": "uint256",
          "name": "_tokenId",
          "type": "uint256"
        }
      ],
      "name": "MetadataUpdate",
      "type": "event"
    },
    {
      "anonymous": false,
      "inputs": [
        {
          "indexed": true,
          "internalType": "uint256",
          "name": "tokenId",
          "type": "uint256"
        },
        {
          "indexed": true,
          "internalType": "address",
          "name": "to",
          "type": "address"
        },
        {
          "indexed": false,
          "internalType": "uint256",
          "name": "score",
          "type": "uint256"
        },
        {
          "indexed": false,
          "internalType": "uint256",
          "name": "anomalyLevel",
          "type": "uint256"
        },
        {
          "indexed": false,
          "internalType": "uint256",
          "name": "blackSwanLevel",
          "type": "uint256"
        },
        {
          "indexed": false,
          "internalType": "uint256",
          "name": "totalKicks",
          "type": "uint256"
        },
        {
          "indexed": false,
          "internalType": "bytes",
          "name": "proof",
          "type": "bytes"
        }
      ],
      "name": "Mint",
      "type": "event"
    },
    {
      "anonymous": false,
      "inputs": [
        {
          "indexed": true,
          "internalType": "uint256",
          "name": "tokenId",
          "type": "uint256"
        },
        {
          "indexed": true,
          "internalType": "uint256",
          "name": "week",
          "type": "uint256"
        },
        {
          "indexed": false,
          "internalType": "uint256",
          "name": "score",
          "type": "uint256"
        }
      ],
      "name": "NewTopScore",
      "type": "event"
    },
    {
      "anonymous": false,
      "inputs": [
        {
          "indexed": true,
          "internalType": "uint256",
          "name": "week",
          "type": "uint256"
        },
        {
          "indexed": true,
          "internalType": "address",
          "name": "winner",
          "type": "address"
        },
        {
          "indexed": false,
          "internalType": "uint256",
          "name": "amount",
          "type": "uint256"
        }
      ],
      "name": "PrizeClaimed",
      "type": "event"
    },
    {
      "anonymous": false,
      "inputs": [
        {
          "indexed": true,
          "internalType": "address",
          "name": "from",
          "type": "address"
        },
        {
          "indexed": true,
          "internalType": "address",
          "name": "to",
          "type": "address"
        },
        {
          "indexed": true,
          "internalType": "uint256",
          "name": "tokenId",
          "type": "uint256"
        }
      ],
      "name": "Transfer",
      "type": "event"
    },
    {
      "anonymous": false,
      "inputs": [
        {
          "indexed": true,
          "internalType": "uint256",
          "name": "week",
          "type": "uint256"
        },
        {
          "indexed": false,
          "internalType": "uint256",
          "name": "score",
          "type": "uint256"
        },
        {
          "indexed": true,
          "internalType": "uint256",
          "name": "tokenId",
          "type": "uint256"
        },
        {
          "indexed": false,
          "internalType": "uint256",
          "name": "prize",
          "type": "uint256"
        },
        {
          "indexed": true,
          "internalType": "address",
          "name": "player",
          "type": "address"
        }
      ],
      "name": "WeeklyWinner",
      "type": "event"
    },
    {
      "stateMutability": "payable",
      "type": "fallback"
    },
    {
      "inputs": [],
      "name": "TIMESTAMP_ZERO",
      "outputs": [
        {
          "internalType": "uint256",
          "name": "",
          "type": "uint256"
        }
      ],
      "stateMutability": "view",
      "type": "function"
    },
    {
      "inputs": [
        {
          "internalType": "address",
          "name": "to",
          "type": "address"
        },
        {
          "internalType": "uint256",
          "name": "tokenId",
          "type": "uint256"
        }
      ],
      "name": "approve",
      "outputs": [],
      "stateMutability": "nonpayable",
      "type": "function"
    },
    {
      "inputs": [],
      "name": "backendSigner",
      "outputs": [
        {
          "internalType": "address",
          "name": "",
          "type": "address"
        }
      ],
      "stateMutability": "view",
      "type": "function"
    },
    {
      "inputs": [
        {
          "internalType": "address",
          "name": "owner",
          "type": "address"
        }
      ],
      "name": "balanceOf",
      "outputs": [
        {
          "internalType": "uint256",
          "name": "",
          "type": "uint256"
        }
      ],
      "stateMutability": "view",
      "type": "function"
    },
    {
      "inputs": [
        {
          "internalType": "uint256",
          "name": "tokenId",
          "type": "uint256"
        }
      ],
      "name": "burn",
      "outputs": [],
      "stateMutability": "nonpayable",
      "type": "function"
    },
    {
      "inputs": [],
      "name": "claimJackpot",
      "outputs": [],
      "stateMutability": "nonpayable",
      "type": "function"
    },
    {
      "inputs": [
        {
          "internalType": "uint256",
          "name": "week",
          "type": "uint256"
        }
      ],
      "name": "claimWeekWinner",
      "outputs": [],
      "stateMutability": "nonpayable",
      "type": "function"
    },
    {
      "inputs": [
        {
          "internalType": "uint256",
          "name": "tokenId",
          "type": "uint256"
        }
      ],
      "name": "getApproved",
      "outputs": [
        {
          "internalType": "address",
          "name": "",
          "type": "address"
        }
      ],
      "stateMutability": "view",
      "type": "function"
    },
    {
      "inputs": [
        {
          "internalType": "address",
          "name": "owner",
          "type": "address"
        },
        {
          "internalType": "address",
          "name": "operator",
          "type": "address"
        }
      ],
      "name": "isApprovedForAll",
      "outputs": [
        {
          "internalType": "bool",
          "name": "",
          "type": "bool"
        }
      ],
      "stateMutability": "view",
      "type": "function"
    },
    {
      "inputs": [
        {
          "internalType": "uint256",
          "name": "week",
          "type": "uint256"
        }
      ],
      "name": "maxScores",
      "outputs": [
        {
          "internalType": "uint256",
          "name": "score",
          "type": "uint256"
        },
        {
          "internalType": "uint256",
          "name": "tokenId",
          "type": "uint256"
        },
        {
          "internalType": "uint256",
          "name": "prize",
          "type": "uint256"
        },
        {
          "internalType": "address",
          "name": "player",
          "type": "address"
        },
        {
          "internalType": "bool",
          "name": "claimed",
          "type": "bool"
        }
      ],
      "stateMutability": "view",
      "type": "function"
    },
    {
      "inputs": [
        {
          "internalType": "string",
          "name": "tokenUri",
          "type": "string"
        },
        {
          "internalType": "uint256",
          "name": "score",
          "type": "uint256"
        },
        {
          "internalType": "uint256",
          "name": "anomalyLevel",
          "type": "uint256"
        },
        {
          "internalType": "uint256",
          "name": "blackSwanLevel",
          "type": "uint256"
        },
        {
          "internalType": "uint256",
          "name": "totalKicks",
          "type": "uint256"
        },
        {
          "internalType": "bytes",
          "name": "proof",
          "type": "bytes"
        }
      ],
      "name": "mint",
      "outputs": [
        {
          "internalType": "uint256",
          "name": "",
          "type": "uint256"
        }
      ],
      "stateMutability": "payable",
      "type": "function"
    },
    {
      "inputs": [],
      "name": "mintPrice",
      "outputs": [
        {
          "internalType": "uint256",
          "name": "",
          "type": "uint256"
        }
      ],
      "stateMutability": "view",
      "type": "function"
    },
    {
      "inputs": [],
      "name": "name",
      "outputs": [
        {
          "internalType": "string",
          "name": "",
          "type": "string"
        }
      ],
      "stateMutability": "view",
      "type": "function"
    },
    {
      "inputs": [
        {
          "internalType": "uint256",
          "name": "tokenId",
          "type": "uint256"
        }
      ],
      "name": "ownerOf",
      "outputs": [
        {
          "internalType": "address",
          "name": "",
          "type": "address"
        }
      ],
      "stateMutability": "view",
      "type": "function"
    },
    {
      "inputs": [
        {
          "internalType": "address",
          "name": "from",
          "type": "address"
        },
        {
          "internalType": "address",
          "name": "to",
          "type": "address"
        },
        {
          "internalType": "uint256",
          "name": "tokenId",
          "type": "uint256"
        }
      ],
      "name": "safeTransferFrom",
      "outputs": [],
      "stateMutability": "nonpayable",
      "type": "function"
    },
    {
      "inputs": [
        {
          "internalType": "address",
          "name": "from",
          "type": "address"
        },
        {
          "internalType": "address",
          "name": "to",
          "type": "address"
        },
        {
          "internalType": "uint256",
          "name": "tokenId",
          "type": "uint256"
        },
        {
          "internalType": "bytes",
          "name": "data",
          "type": "bytes"
        }
      ],
      "name": "safeTransferFrom",
      "outputs": [],
      "stateMutability": "nonpayable",
      "type": "function"
    },
    {
      "inputs": [
        {
          "internalType": "uint256",
          "name": "tokenId",
          "type": "uint256"
        }
      ],
      "name": "scores",
      "outputs": [
        {
          "internalType": "uint256",
          "name": "score",
          "type": "uint256"
        },
        {
          "internalType": "uint256",
          "name": "anomalyLevel",
          "type": "uint256"
        },
        {
          "internalType": "uint256",
          "name": "blackSwanLevel",
          "type": "uint256"
        },
        {
          "internalType": "uint256",
          "name": "totalKicks",
          "type": "uint256"
        },
        {
          "internalType": "address",
          "name": "player",
          "type": "address"
        }
      ],
      "stateMutability": "view",
      "type": "function"
    },
    {
      "inputs": [
        {
          "internalType": "address",
          "name": "operator",
          "type": "address"
        },
        {
          "internalType": "bool",
          "name": "approved",
          "type": "bool"
        }
      ],
      "name": "setApprovalForAll",
      "outputs": [],
      "stateMutability": "nonpayable",
      "type": "function"
    },
    {
      "inputs": [
        {
          "internalType": "bytes4",
          "name": "interfaceId",
          "type": "bytes4"
        }
      ],
      "name": "supportsInterface",
      "outputs": [
        {
          "internalType": "bool",
          "name": "",
          "type": "bool"
        }
      ],
      "stateMutability": "view",
      "type": "function"
    },
    {
      "inputs": [],
      "name": "symbol",
      "outputs": [
        {
          "internalType": "string",
          "name": "",
          "type": "string"
        }
      ],
      "stateMutability": "view",
      "type": "function"
    },
    {
      "inputs": [
        {
          "internalType": "uint256",
          "name": "index",
          "type": "uint256"
        }
      ],
      "name": "tokenByIndex",
      "outputs": [
        {
          "internalType": "uint256",
          "name": "",
          "type": "uint256"
        }
      ],
      "stateMutability": "view",
      "type": "function"
    },
    {
      "inputs": [
        {
          "internalType": "address",
          "name": "owner",
          "type": "address"
        },
        {
          "internalType": "uint256",
          "name": "index",
          "type": "uint256"
        }
      ],
      "name": "tokenOfOwnerByIndex",
      "outputs": [
        {
          "internalType": "uint256",
          "name": "",
          "type": "uint256"
        }
      ],
      "stateMutability": "view",
      "type": "function"
    },
    {
      "inputs": [
        {
          "internalType": "uint256",
          "name": "tokenId",
          "type": "uint256"
        }
      ],
      "name": "tokenURI",
      "outputs": [
        {
          "internalType": "string",
          "name": "",
          "type": "string"
        }
      ],
      "stateMutability": "view",
      "type": "function"
    },
    {
      "inputs": [],
      "name": "totalSupply",
      "outputs": [
        {
          "internalType": "uint256",
          "name": "",
          "type": "uint256"
        }
      ],
      "stateMutability": "view",
      "type": "function"
    },
    {
      "inputs": [
        {
          "internalType": "address",
          "name": "from",
          "type": "address"
        },
        {
          "internalType": "address",
          "name": "to",
          "type": "address"
        },
        {
          "internalType": "uint256",
          "name": "tokenId",
          "type": "uint256"
        }
      ],
      "name": "transferFrom",
      "outputs": [],
      "stateMutability": "nonpayable",
      "type": "function"
    },
    {
      "stateMutability": "payable",
      "type": "receive"
    }
  ],
  "bytecode": "0x60c06040525f600d554260a052348015610017575f5ffd5b50604051612846380380612846833981016040819052610036916100cb565b6040518060400160405280600f81526020016e12da58dac8151a194813585c9ad95d608a1b815250604051806040016040528060038152602001624b544d60e81b815250815f9081610088919061019d565b506001610095828261019d565b50506001600b555033608052600d91909155600e80546001600160a01b0319166001600160a01b03909216919091179055610257565b5f5f604083850312156100dc575f5ffd5b825160208401519092506001600160a01b03811681146100fa575f5ffd5b809150509250929050565b634e487b7160e01b5f52604160045260245ffd5b600181811c9082168061012d57607f821691505b60208210810361014b57634e487b7160e01b5f52602260045260245ffd5b50919050565b601f82111561019857805f5260205f20601f840160051c810160208510156101765750805b601f840160051c820191505b81811015610195575f8155600101610182565b50505b505050565b81516001600160401b038111156101b6576101b6610105565b6101ca816101c48454610119565b84610151565b6020601f8211600181146101fc575f83156101e55750848201515b5f19600385901b1c1916600184901b178455610195565b5f84815260208120601f198516915b8281101561022b578785015182556020948501946001909201910161020b565b508482101561024857868401515f19600387901b60f8161c191681555b50505050600190811b01905550565b60805160a0516125b961028d5f395f81816105a4015281816107f6015261121b01525f8181610431015261105901526125b95ff3fe608060405260043610610169575f3560e01c80636352211e116100d0578063a656cb3d11610089578063c87b56dd11610063578063c87b56dd14610574578063dede511f14610593578063e288ea64146105c6578063e985e9c5146105da576101bb565b8063a656cb3d146104ba578063ad8c7031146104cd578063b88d4fde14610555576101bb565b80636352211e1461040157806365d65e86146104205780636817c76c1461045357806370a082311461046857806395d89b4114610487578063a22cb4651461049b576101bb565b80632ee691a3116101225780632ee691a3146102e45780632f745c591461036657806342842e0e1461038557806342966c68146103a45780634384f436146103c35780634f6ccce7146103e2576101bb565b806301ffc9a7146101fa57806306fdde031461022e578063081812fc1461024f578063095ea7b31461028657806318160ddd146102a757806323b872dd146102c5576101bb565b366101bb5760405162461bcd60e51b815260206004820152601760248201527f5265636569766520455448206e6f7420616c6c6f77656400000000000000000060448201526064015b60405180910390fd5b60405162461bcd60e51b815260206004820152601460248201527311985b1b189858dac81b9bdd08185b1b1bddd95960621b60448201526064016101b2565b348015610205575f5ffd5b50610219610214366004611f8e565b6105f9565b60405190151581526020015b60405180910390f35b348015610239575f5ffd5b50610242610609565b6040516102259190611fd7565b34801561025a575f5ffd5b5061026e610269366004611fe9565b610698565b6040516001600160a01b039091168152602001610225565b348015610291575f5ffd5b506102a56102a036600461201b565b6106bf565b005b3480156102b2575f5ffd5b506008545b604051908152602001610225565b3480156102d0575f5ffd5b506102a56102df366004612043565b6106ce565b3480156102ef575f5ffd5b506103356102fe366004611fe9565b600f6020525f908152604090208054600182015460028301546003840154600490940154929391929091906001600160a01b031685565b6040805195865260208601949094529284019190915260608301526001600160a01b0316608082015260a001610225565b348015610371575f5ffd5b506102b761038036600461201b565b610757565b348015610390575f5ffd5b506102a561039f366004612043565b6107ba565b3480156103af575f5ffd5b506102a56103be366004611fe9565b6107d9565b3480156103ce575f5ffd5b506102a56103dd366004611fe9565b6107e4565b3480156103ed575f5ffd5b506102b76103fc366004611fe9565b610a4f565b34801561040c575f5ffd5b5061026e61041b366004611fe9565b610aa4565b34801561042b575f5ffd5b5061026e7f000000000000000000000000000000000000000000000000000000000000000081565b34801561045e575f5ffd5b506102b7600d5481565b348015610473575f5ffd5b506102b761048236600461207d565b610aae565b348015610492575f5ffd5b50610242610af3565b3480156104a6575f5ffd5b506102a56104b5366004612096565b610b02565b6102b76104c8366004612178565b610b0d565b3480156104d8575f5ffd5b506105226104e7366004611fe9565b60106020525f90815260409020805460018201546002830154600390930154919290916001600160a01b03811690600160a01b900460ff1685565b604080519586526020860194909452928401919091526001600160a01b031660608301521515608082015260a001610225565b348015610560575f5ffd5b506102a561056f366004612213565b610d6c565b34801561057f575f5ffd5b5061024261058e366004611fe9565b610d84565b34801561059e575f5ffd5b506102b77f000000000000000000000000000000000000000000000000000000000000000081565b3480156105d1575f5ffd5b506102a5610d8f565b3480156105e5575f5ffd5b506102196105f4366004612277565b610e74565b5f61060382610ea1565b92915050565b60605f8054610617906122a8565b80601f0160208091040260200160405190810160405280929190818152602001828054610643906122a8565b801561068e5780601f106106655761010080835404028352916020019161068e565b820191905f5260205f20905b81548152906001019060200180831161067157829003601f168201915b5050505050905090565b5f6106a282610ec5565b505f828152600460205260409020546001600160a01b0316610603565b6106ca828233610efd565b5050565b6001600160a01b0382166106f757604051633250574960e11b81525f60048201526024016101b2565b5f610703838333610f0a565b9050836001600160a01b0316816001600160a01b031614610751576040516364283d7b60e01b81526001600160a01b03808616600483015260248201849052821660448201526064016101b2565b50505050565b5f61076183610aae565b82106107925760405163295f44f760e21b81526001600160a01b0384166004820152602481018390526044016101b2565b506001600160a01b03919091165f908152600660209081526040808320938352929052205490565b6107d483838360405180602001604052805f815250610d6c565b505050565b6106ca5f8233610f0a565b6107ec610f1e565b5f62093a8061081b7f0000000000000000000000000000000000000000000000000000000000000000426122f4565b6108259190612307565b90508082106108665760405162461bcd60e51b815260206004820152600d60248201526c4f6e20676f696e67207765656b60981b60448201526064016101b2565b5f8281526010602052604090206003810154600160a01b900460ff1615156001036108c55760405162461bcd60e51b815260206004820152600f60248201526e105b1c9958591e4810db185a5b5959608a1b60448201526064016101b2565b6002810154806109045760405162461bcd60e51b815260206004820152600a6024820152695a65726f205072697a6560b01b60448201526064016101b2565b60038201546001600160a01b03168061094e5760405162461bcd60e51b815260206004820152600c60248201526b5a65726f204164647265737360a01b60448201526064016101b2565b60038301805460ff60a01b1916600160a01b1790556040515f906001600160a01b0383169084908381818185875af1925050503d805f81146109ab576040519150601f19603f3d011682016040523d82523d5f602084013e6109b0565b606091505b50509050806109f95760405162461bcd60e51b8152602060048201526015602482015274141c9a5e9948151c985b9cd9995c8811985a5b1959605a1b60448201526064016101b2565b816001600160a01b0316867f4aa95f981a8337cb337de335b965507da0879c3b49f799d20058e913f5ad2c2685604051610a3591815260200190565b60405180910390a35050505050610a4c6001600b55565b50565b5f610a5960085490565b8210610a815760405163295f44f760e21b81525f6004820152602481018390526044016101b2565b60088281548110610a9457610a94612326565b905f5260205f2001549050919050565b5f61060382610ec5565b5f6001600160a01b038216610ad8576040516322718ad960e21b81525f60048201526024016101b2565b506001600160a01b03165f9081526003602052604090205490565b606060018054610617906122a8565b6106ca338383610f48565b5f610b16610f1e565b5f8611610b525760405162461bcd60e51b815260206004820152600a6024820152695a65726f2053636f726560b01b60448201526064016101b2565b5f875111610b955760405162461bcd60e51b815260206004820152601060248201526f4d697373696e6720546f6b656e55726960801b60448201526064016101b2565b600e5f9054906101000a90046001600160a01b03166001600160a01b03166385eb72b86040518163ffffffff1660e01b8152600401602060405180830381865afa158015610be5573d5f5f3e3d5ffd5b505050506040513d601f19601f82011682018060405250810190610c09919061233a565b600d54610c169190612351565b3411610c555760405162461bcd60e51b815260206004820152600e60248201526d09cdee840cadcdeeaced0408aa8960931b60448201526064016101b2565b600c80545f9182610c6583612364565b90915550905033610c77848a83610fe6565b610c8081611137565b610c8a828a6111a9565b610c9481836111f8565b610c9e8883611211565b6040805160a08101825289815260208082018a81528284018a8152606084018a81526001600160a01b03878116608087018181525f8b8152600f909752958890209651875593516001870155915160028601555160038501559151600490930180546001600160a01b03191693909216929092179055905183907f9cc5e8a9387ad4bbf6f7ee4537e325b8a16fad3b7a0c0b95af015759e6ddf39d90610d4d908c908c908c908c908c9061237c565b60405180910390a3509050610d626001600b55565b9695505050505050565b610d778484846106ce565b61075133858585856113a2565b6060610603826114ca565b610d97610f1e565b600e546040516335eaa28560e11b81523360048201819052915f916001600160a01b0390911690636bd5450a90602401602060405180830381865afa158015610de2573d5f5f3e3d5ffd5b505050506040513d601f19601f82011682018060405250810190610e06919061233a565b1115610e6757600e5460405163c574aa5760e01b81526001600160a01b0383811660048301529091169063c574aa57906024015f604051808303815f87803b158015610e50575f5ffd5b505af1158015610e62573d5f5f3e3d5ffd5b505050505b50610e726001600b55565b565b6001600160a01b039182165f90815260056020908152604080832093909416825291909152205460ff1690565b5f6001600160e01b03198216632483248360e11b14806106035750610603826115cd565b5f818152600260205260408120546001600160a01b03168061060357604051637e27328960e01b8152600481018490526024016101b2565b6107d483838360016115f1565b5f610f168484846116f5565b949350505050565b6002600b5403610f4157604051633ee5aeb560e01b815260040160405180910390fd5b6002600b55565b6001600160a01b038216610f7a57604051630b61174360e31b81526001600160a01b03831660048201526024016101b2565b6001600160a01b038381165f81815260056020908152604080832094871680845294825291829020805460ff191686151590811790915591519182527f17307eab39ab6107e8899845ad3d59bd9653f200f220920489ca2b5937696c31910160405180910390a3505050565b5f468383604051602001610ffc939291906123c8565b6040516020818303038152906040528051906020012090505f6110558561104f847f19457468657265756d205369676e6564204d6573736167653a0a3332000000005f908152601c91909152603c902090565b906117c0565b90507f00000000000000000000000000000000000000000000000000000000000000006001600160a01b0316816001600160a01b0316146110cc5760405162461bcd60e51b8152602060048201526011602482015270496e76616c6964207369676e617475726560781b60448201526064016101b2565b5f8281526011602052604090205460ff16156111195760405162461bcd60e51b815260206004820152600c60248201526b105b1c9958591e481d5cd95960a21b60448201526064016101b2565b505f908152601160205260409020805460ff19166001179055505050565b5f600d543461114691906122f4565b600e546040516324e3b23160e11b81526001600160a01b0385811660048301529293509116906349c764629083906024015f604051808303818588803b15801561118e575f5ffd5b505af11580156111a0573d5f5f3e3d5ffd5b50505050505050565b5f828152600a602052604090206111c0828261243f565b506040518281527ff8e1a15aba9398e019f0b49df1a4fde98ee17ae345cb5f6b5e2c27f5033e8ce79060200160405180910390a15050565b6106ca828260405180602001604052805f8152506117e8565b5f62093a806112407f0000000000000000000000000000000000000000000000000000000000000000426122f4565b61124a9190612307565b5f8181526010602052604090208054919250908411156113825780541580156112735750600182115b15611325575f6112846001846122f4565b5f81815260106020908152604091829020825160a0810184528154808252600183015482850181905260028401548387018190526003909401546001600160a01b03811660608501819052600160a01b90910460ff1615156080850152865192835294820193909352949550939192909185917fc3f4fbeb2721478cae273a5fabc46a4bf4c35e1abad2c6df14ebb0ea79a83c8e910160405180910390a450505b838155600181018390556003810180546001600160a01b03191633179055604051829084907f859d305634acc5fd89746e880341839923f8168c750abe2ec84dbab7ab8c175a906113799088815260200190565b60405180910390a35b600d54816002015f8282546113979190612351565b909155505050505050565b6001600160a01b0383163b156114c357604051630a85bd0160e11b81526001600160a01b0384169063150b7a02906113e49088908890879087906004016124fa565b6020604051808303815f875af192505050801561141e575060408051601f3d908101601f1916820190925261141b9181019061252c565b60015b611485573d80801561144b576040519150601f19603f3d011682016040523d82523d5f602084013e611450565b606091505b5080515f0361147d57604051633250574960e11b81526001600160a01b03851660048201526024016101b2565b805160208201fd5b6001600160e01b03198116630a85bd0160e11b146114c157604051633250574960e11b81526001600160a01b03851660048201526024016101b2565b505b5050505050565b60606114d582610ec5565b505f828152600a6020526040812080546114ee906122a8565b80601f016020809104026020016040519081016040528092919081815260200182805461151a906122a8565b80156115655780601f1061153c57610100808354040283529160200191611565565b820191905f5260205f20905b81548152906001019060200180831161154857829003601f168201915b505050505090505f61158160408051602081019091525f815290565b905080515f03611592575092915050565b8151156115c45780826040516020016115ac929190612547565b60405160208183030381529060405292505050919050565b610f16846117ff565b5f6001600160e01b0319821663780e9d6360e01b1480610603575061060382611870565b808061160557506001600160a01b03821615155b156116c6575f61161484610ec5565b90506001600160a01b038316158015906116405750826001600160a01b0316816001600160a01b031614155b801561165357506116518184610e74565b155b1561167c5760405163a9fbf51f60e01b81526001600160a01b03841660048201526024016101b2565b81156116c45783856001600160a01b0316826001600160a01b03167f8c5be1e5ebec7d5bd14f71427d1e84f3dd0314c0f7b2291e5b200ac8c7c3b92560405160405180910390a45b505b50505f90815260046020526040902080546001600160a01b0319166001600160a01b0392909216919091179055565b5f5f6117028585856118bf565b90506001600160a01b03811661175e5761175984600880545f838152600960205260408120829055600182018355919091527ff3f7a9fe364faab93b216da50a3214154f22a0a2b415b23a84c8169e8b636ee30155565b611781565b846001600160a01b0316816001600160a01b0316146117815761178181856119b1565b6001600160a01b03851661179d5761179884611a2e565b610f16565b846001600160a01b0316816001600160a01b031614610f1657610f168585611ad5565b5f5f5f5f6117ce8686611b23565b9250925092506117de8282611b6c565b5090949350505050565b6117f28383611c24565b6107d4335f8585856113a2565b606061180a82610ec5565b505f61182060408051602081019091525f815290565b90505f81511161183e5760405180602001604052805f815250611869565b8061184884611c85565b604051602001611859929190612547565b6040516020818303038152906040525b9392505050565b5f6001600160e01b031982166380ac58cd60e01b14806118a057506001600160e01b03198216635b5e139f60e01b145b8061060357506301ffc9a760e01b6001600160e01b0319831614610603565b5f828152600260205260408120546001600160a01b03908116908316156118eb576118eb818486611d15565b6001600160a01b03811615611925576119065f855f5f6115f1565b6001600160a01b0381165f90815260036020526040902080545f190190555b6001600160a01b03851615611953576001600160a01b0385165f908152600360205260409020805460010190555b5f8481526002602052604080822080546001600160a01b0319166001600160a01b0389811691821790925591518793918516917fddf252ad1be2c89b69c2b068fc378daa952ba7f163c4a11628f55a4df523b3ef91a4949350505050565b5f6119bb83610aae565b5f838152600760209081526040808320546001600160a01b0388168452600690925290912091925090818314611a10575f83815260208281526040808320548584528184208190558352600790915290208290555b5f938452600760209081526040808620869055938552525081205550565b6008545f90611a3f906001906122f4565b5f8381526009602052604081205460088054939450909284908110611a6657611a66612326565b905f5260205f20015490508060088381548110611a8557611a85612326565b5f918252602080832090910192909255828152600990915260408082208490558582528120556008805480611abc57611abc61255b565b600190038181905f5260205f20015f9055905550505050565b5f6001611ae184610aae565b611aeb91906122f4565b6001600160a01b039093165f908152600660209081526040808320868452825280832085905593825260079052919091209190915550565b5f5f5f8351604103611b5a576020840151604085015160608601515f1a611b4c88828585611d79565b955095509550505050611b65565b505081515f91506002905b9250925092565b5f826003811115611b7f57611b7f61256f565b03611b88575050565b6001826003811115611b9c57611b9c61256f565b03611bba5760405163f645eedf60e01b815260040160405180910390fd5b6002826003811115611bce57611bce61256f565b03611bef5760405163fce698f760e01b8152600481018290526024016101b2565b6003826003811115611c0357611c0361256f565b036106ca576040516335e2f38360e21b8152600481018290526024016101b2565b6001600160a01b038216611c4d57604051633250574960e11b81525f60048201526024016101b2565b5f611c5983835f610f0a565b90506001600160a01b038116156107d4576040516339e3563760e11b81525f60048201526024016101b2565b60605f611c9183611e41565b60010190505f8167ffffffffffffffff811115611cb057611cb06120cf565b6040519080825280601f01601f191660200182016040528015611cda576020820181803683370190505b5090508181016020015b5f19016f181899199a1a9b1b9c1cb0b131b232b360811b600a86061a8153600a8504945084611ce457509392505050565b611d20838383611f18565b6107d4576001600160a01b038316611d4e57604051637e27328960e01b8152600481018290526024016101b2565b60405163177e802f60e01b81526001600160a01b0383166004820152602481018290526044016101b2565b5f80807f7fffffffffffffffffffffffffffffff5d576e7357a4501ddfe92f46681b20a0841115611db257505f91506003905082611e37565b604080515f808252602082018084528a905260ff891692820192909252606081018790526080810186905260019060a0016020604051602081039080840390855afa158015611e03573d5f5f3e3d5ffd5b5050604051601f1901519150506001600160a01b038116611e2e57505f925060019150829050611e37565b92505f91508190505b9450945094915050565b5f8072184f03e93ff9f4daa797ed6e38ed64bf6a1f0160401b8310611e7f5772184f03e93ff9f4daa797ed6e38ed64bf6a1f0160401b830492506040015b6d04ee2d6d415b85acef81000000008310611eab576d04ee2d6d415b85acef8100000000830492506020015b662386f26fc100008310611ec957662386f26fc10000830492506010015b6305f5e1008310611ee1576305f5e100830492506008015b6127108310611ef557612710830492506004015b60648310611f07576064830492506002015b600a83106106035760010192915050565b5f6001600160a01b03831615801590610f165750826001600160a01b0316846001600160a01b03161480611f515750611f518484610e74565b80610f165750505f908152600460205260409020546001600160a01b03908116911614919050565b6001600160e01b031981168114610a4c575f5ffd5b5f60208284031215611f9e575f5ffd5b813561186981611f79565b5f81518084528060208401602086015e5f602082860101526020601f19601f83011685010191505092915050565b602081525f6118696020830184611fa9565b5f60208284031215611ff9575f5ffd5b5035919050565b80356001600160a01b0381168114612016575f5ffd5b919050565b5f5f6040838503121561202c575f5ffd5b61203583612000565b946020939093013593505050565b5f5f5f60608486031215612055575f5ffd5b61205e84612000565b925061206c60208501612000565b929592945050506040919091013590565b5f6020828403121561208d575f5ffd5b61186982612000565b5f5f604083850312156120a7575f5ffd5b6120b083612000565b9150602083013580151581146120c4575f5ffd5b809150509250929050565b634e487b7160e01b5f52604160045260245ffd5b5f5f67ffffffffffffffff8411156120fd576120fd6120cf565b50604051601f19601f85018116603f0116810181811067ffffffffffffffff8211171561212c5761212c6120cf565b604052838152905080828401851015612143575f5ffd5b838360208301375f60208583010152509392505050565b5f82601f830112612169575f5ffd5b611869838335602085016120e3565b5f5f5f5f5f5f60c0878903121561218d575f5ffd5b863567ffffffffffffffff8111156121a3575f5ffd5b8701601f810189136121b3575f5ffd5b6121c2898235602084016120e3565b9650506020870135945060408701359350606087013592506080870135915060a087013567ffffffffffffffff8111156121fa575f5ffd5b61220689828a0161215a565b9150509295509295509295565b5f5f5f5f60808587031215612226575f5ffd5b61222f85612000565b935061223d60208601612000565b925060408501359150606085013567ffffffffffffffff81111561225f575f5ffd5b61226b8782880161215a565b91505092959194509250565b5f5f60408385031215612288575f5ffd5b61229183612000565b915061229f60208401612000565b90509250929050565b600181811c908216806122bc57607f821691505b6020821081036122da57634e487b7160e01b5f52602260045260245ffd5b50919050565b634e487b7160e01b5f52601160045260245ffd5b81810381811115610603576106036122e0565b5f8261232157634e487b7160e01b5f52601260045260245ffd5b500490565b634e487b7160e01b5f52603260045260245ffd5b5f6020828403121561234a575f5ffd5b5051919050565b80820180821115610603576106036122e0565b5f60018201612375576123756122e0565b5060010190565b85815284602082015283604082015282606082015260a060808201525f6123a660a0830184611fa9565b979650505050505050565b5f81518060208401855e5f93019283525090919050565b8381525f6123d960208301856123b1565b60609390931b6bffffffffffffffffffffffff19168352505060140192915050565b601f8211156107d457805f5260205f20601f840160051c810160208510156124205750805b601f840160051c820191505b818110156114c3575f815560010161242c565b815167ffffffffffffffff811115612459576124596120cf565b61246d8161246784546122a8565b846123fb565b6020601f82116001811461249f575f83156124885750848201515b5f19600385901b1c1916600184901b1784556114c3565b5f84815260208120601f198516915b828110156124ce57878501518255602094850194600190920191016124ae565b50848210156124eb57868401515f19600387901b60f8161c191681555b50505050600190811b01905550565b6001600160a01b03858116825284166020820152604081018390526080606082018190525f90610d6290830184611fa9565b5f6020828403121561253c575f5ffd5b815161186981611f79565b5f610f1661255583866123b1565b846123b1565b634e487b7160e01b5f52603160045260245ffd5b634e487b7160e01b5f52602160045260245ffdfea264697066735822122095483b5fd5f4d5605e9cab45af7cacb9fa2228e810659125d5806867ba6eb08c64736f6c634300081c0033",
  "linkReferences": {},
  "deployedLinkReferences": {},
  "immutableReferences": {
    "7525": [
      {
        "length": 32,
        "start": 1073
      },
      {
        "length": 32,
        "start": 4185
      }
    ],
    "7532": [
      {
        "length": 32,
        "start": 1444
      },
      {
        "length": 32,
        "start": 2038
      },
      {
        "length": 32,
        "start": 4635
      }
    ]
  },
  "inputSourceName": "project/contracts/KickTheMarketV2.sol",
  "buildInfoId": "solc-0_8_28-35f9fb8281d97493cca7661e24a8eb9511c98875"
}