{
  "_format": "hh3-artifact-1",
  "contractName": "KickTheMarket",
  "sourceName": "contracts/KickTheMarket.sol",
  "abi": [
    {
      "inputs": [],
      "stateMutability": "nonpayable",
      "type": "constructor"
    },
    {
      "inputs": [],
      "name": "ECDSAInvalidSignature",
      "type": "error"
    },
    {
      "inputs": [
        {
          "internalType": "uint256",
          "name": "length",
          "type": "uint256"
        }
      ],
      "name": "ECDSAInvalidSignatureLength",
      "type": "error"
    },
    {
      "inputs": [
        {
          "internalType": "bytes32",
          "name": "s",
          "type": "bytes32"
        }
      ],
      "name": "ECDSAInvalidSignatureS",
      "type": "error"
    },
    {
      "inputs": [],
      "name": "ERC721EnumerableForbiddenBatchMint",
      "type": "error"
    },
    {
      "inputs": [
        {
          "internalType": "address",
          "name": "sender",
          "type": "address"
        },
        {
          "internalType": "uint256",
          "name": "tokenId",
          "type": "uint256"
        },
        {
          "internalType": "address",
          "name": "owner",
          "type": "address"
        }
      ],
      "name": "ERC721IncorrectOwner",
      "type": "error"
    },
    {
      "inputs": [
        {
          "internalType": "address",
          "name": "operator",
          "type": "address"
        },
        {
          "internalType": "uint256",
          "name": "tokenId",
          "type": "uint256"
        }
      ],
      "name": "ERC721InsufficientApproval",
      "type": "error"
    },
    {
      "inputs": [
        {
          "internalType": "address",
          "name": "approver",
          "type": "address"
        }
      ],
      "name": "ERC721InvalidApprover",
      "type": "error"
    },
    {
      "inputs": [
        {
          "internalType": "address",
          "name": "operator",
          "type": "address"
        }
      ],
      "name": "ERC721InvalidOperator",
      "type": "error"
    },
    {
      "inputs": [
        {
          "internalType": "address",
          "name": "owner",
          "type": "address"
        }
      ],
      "name": "ERC721InvalidOwner",
      "type": "error"
    },
    {
      "inputs": [
        {
          "internalType": "address",
          "name": "receiver",
          "type": "address"
        }
      ],
      "name": "ERC721InvalidReceiver",
      "type": "error"
    },
    {
      "inputs": [
        {
          "internalType": "address",
          "name": "sender",
          "type": "address"
        }
      ],
      "name": "ERC721InvalidSender",
      "type": "error"
    },
    {
      "inputs": [
        {
          "internalType": "uint256",
          "name": "tokenId",
          "type": "uint256"
        }
      ],
      "name": "ERC721NonexistentToken",
      "type": "error"
    },
    {
      "inputs": [
        {
          "internalType": "address",
          "name": "owner",
          "type": "address"
        },
        {
          "internalType": "uint256",
          "name": "index",
          "type": "uint256"
        }
      ],
      "name": "ERC721OutOfBoundsIndex",
      "type": "error"
    },
    {
      "anonymous": false,
      "inputs": [
        {
          "indexed": true,
          "internalType": "address",
          "name": "owner",
          "type": "address"
        },
        {
          "indexed": true,
          "internalType": "address",
          "name": "approved",
          "type": "address"
        },
        {
          "indexed": true,
          "internalType": "uint256",
          "name": "tokenId",
          "type": "uint256"
        }
      ],
      "name": "Approval",
      "type": "event"
    },
    {
      "anonymous": false,
      "inputs": [
        {
          "indexed": true,
          "internalType": "address",
          "name": "owner",
          "type": "address"
        },
        {
          "indexed": true,
          "internalType": "address",
          "name": "operator",
          "type": "address"
        },
        {
          "indexed": false,
          "internalType": "bool",
          "name": "approved",
          "type": "bool"
        }
      ],
      "name": "ApprovalForAll",
      "type": "event"
    },
    {
      "anonymous": false,
      "inputs": [
        {
          "indexed": false,
          "internalType": "uint256",
          "name": "_fromTokenId",
          "type": "uint256"
        },
        {
          "indexed": false,
          "internalType": "uint256",
          "name": "_toTokenId",
          "type": "uint256"
        }
      ],
      "name": "BatchMetadataUpdate",
      "type": "event"
    },
    {
      "anonymous": false,
      "inputs": [
        {
          "indexed": false,
          "internalType": "uint256",
          "name": "_tokenId",
          "type": "uint256"
        }
      ],
      "name": "MetadataUpdate",
      "type": "event"
    },
    {
      "anonymous": false,
      "inputs": [
        {
          "indexed": true,
          "internalType": "uint256",
          "name": "tokenId",
          "type": "uint256"
        },
        {
          "indexed": true,
          "internalType": "address",
          "name": "to",
          "type": "address"
        },
        {
          "indexed": false,
          "internalType": "uint256",
          "name": "score",
          "type": "uint256"
        },
        {
          "indexed": false,
          "internalType": "uint256",
          "name": "anomalyLevel",
          "type": "uint256"
        },
        {
          "indexed": false,
          "internalType": "uint256",
          "name": "blackSwanLevel",
          "type": "uint256"
        },
        {
          "indexed": false,
          "internalType": "uint256",
          "name": "totalKicks",
          "type": "uint256"
        },
        {
          "indexed": false,
          "internalType": "bytes",
          "name": "proof",
          "type": "bytes"
        }
      ],
      "name": "Mint",
      "type": "event"
    },
    {
      "anonymous": false,
      "inputs": [
        {
          "indexed": true,
          "internalType": "address",
          "name": "from",
          "type": "address"
        },
        {
          "indexed": true,
          "internalType": "address",
          "name": "to",
          "type": "address"
        },
        {
          "indexed": true,
          "internalType": "uint256",
          "name": "tokenId",
          "type": "uint256"
        }
      ],
      "name": "Transfer",
      "type": "event"
    },
    {
      "stateMutability": "payable",
      "type": "fallback"
    },
    {
      "inputs": [
        {
          "internalType": "address",
          "name": "to",
          "type": "address"
        },
        {
          "internalType": "uint256",
          "name": "tokenId",
          "type": "uint256"
        }
      ],
      "name": "approve",
      "outputs": [],
      "stateMutability": "nonpayable",
      "type": "function"
    },
    {
      "inputs": [],
      "name": "backendSigner",
      "outputs": [
        {
          "internalType": "address",
          "name": "",
          "type": "address"
        }
      ],
      "stateMutability": "view",
      "type": "function"
    },
    {
      "inputs": [
        {
          "internalType": "address",
          "name": "owner",
          "type": "address"
        }
      ],
      "name": "balanceOf",
      "outputs": [
        {
          "internalType": "uint256",
          "name": "",
          "type": "uint256"
        }
      ],
      "stateMutability": "view",
      "type": "function"
    },
    {
      "inputs": [
        {
          "internalType": "uint256",
          "name": "tokenId",
          "type": "uint256"
        }
      ],
      "name": "burn",
      "outputs": [],
      "stateMutability": "nonpayable",
      "type": "function"
    },
    {
      "inputs": [
        {
          "internalType": "uint256",
          "name": "tokenId",
          "type": "uint256"
        }
      ],
      "name": "getApproved",
      "outputs": [
        {
          "internalType": "address",
          "name": "",
          "type": "address"
        }
      ],
      "stateMutability": "view",
      "type": "function"
    },
    {
      "inputs": [
        {
          "internalType": "address",
          "name": "owner",
          "type": "address"
        },
        {
          "internalType": "address",
          "name": "operator",
          "type": "address"
        }
      ],
      "name": "isApprovedForAll",
      "outputs": [
        {
          "internalType": "bool",
          "name": "",
          "type": "bool"
        }
      ],
      "stateMutability": "view",
      "type": "function"
    },
    {
      "inputs": [
        {
          "internalType": "string",
          "name": "tokenUri",
          "type": "string"
        },
        {
          "internalType": "uint256",
          "name": "score",
          "type": "uint256"
        },
        {
          "internalType": "uint256",
          "name": "anomalyLevel",
          "type": "uint256"
        },
        {
          "internalType": "uint256",
          "name": "blackSwanLevel",
          "type": "uint256"
        },
        {
          "internalType": "uint256",
          "name": "totalKicks",
          "type": "uint256"
        },
        {
          "internalType": "bytes",
          "name": "proof",
          "type": "bytes"
        }
      ],
      "name": "mint",
      "outputs": [
        {
          "internalType": "uint256",
          "name": "",
          "type": "uint256"
        }
      ],
      "stateMutability": "nonpayable",
      "type": "function"
    },
    {
      "inputs": [],
      "name": "name",
      "outputs": [
        {
          "internalType": "string",
          "name": "",
          "type": "string"
        }
      ],
      "stateMutability": "view",
      "type": "function"
    },
    {
      "inputs": [
        {
          "internalType": "uint256",
          "name": "tokenId",
          "type": "uint256"
        }
      ],
      "name": "ownerOf",
      "outputs": [
        {
          "internalType": "address",
          "name": "",
          "type": "address"
        }
      ],
      "stateMutability": "view",
      "type": "function"
    },
    {
      "inputs": [
        {
          "internalType": "address",
          "name": "from",
          "type": "address"
        },
        {
          "internalType": "address",
          "name": "to",
          "type": "address"
        },
        {
          "internalType": "uint256",
          "name": "tokenId",
          "type": "uint256"
        }
      ],
      "name": "safeTransferFrom",
      "outputs": [],
      "stateMutability": "nonpayable",
      "type": "function"
    },
    {
      "inputs": [
        {
          "internalType": "address",
          "name": "from",
          "type": "address"
        },
        {
          "internalType": "address",
          "name": "to",
          "type": "address"
        },
        {
          "internalType": "uint256",
          "name": "tokenId",
          "type": "uint256"
        },
        {
          "internalType": "bytes",
          "name": "data",
          "type": "bytes"
        }
      ],
      "name": "safeTransferFrom",
      "outputs": [],
      "stateMutability": "nonpayable",
      "type": "function"
    },
    {
      "inputs": [
        {
          "internalType": "uint256",
          "name": "",
          "type": "uint256"
        }
      ],
      "name": "scoreData",
      "outputs": [
        {
          "internalType": "uint256",
          "name": "score",
          "type": "uint256"
        },
        {
          "internalType": "uint256",
          "name": "anomalyLevel",
          "type": "uint256"
        },
        {
          "internalType": "uint256",
          "name": "blackSwanLevel",
          "type": "uint256"
        },
        {
          "internalType": "uint256",
          "name": "totalKicks",
          "type": "uint256"
        },
        {
          "internalType": "bytes",
          "name": "proof",
          "type": "bytes"
        },
        {
          "internalType": "address",
          "name": "player",
          "type": "address"
        }
      ],
      "stateMutability": "view",
      "type": "function"
    },
    {
      "inputs": [
        {
          "internalType": "address",
          "name": "operator",
          "type": "address"
        },
        {
          "internalType": "bool",
          "name": "approved",
          "type": "bool"
        }
      ],
      "name": "setApprovalForAll",
      "outputs": [],
      "stateMutability": "nonpayable",
      "type": "function"
    },
    {
      "inputs": [
        {
          "internalType": "bytes4",
          "name": "interfaceId",
          "type": "bytes4"
        }
      ],
      "name": "supportsInterface",
      "outputs": [
        {
          "internalType": "bool",
          "name": "",
          "type": "bool"
        }
      ],
      "stateMutability": "view",
      "type": "function"
    },
    {
      "inputs": [],
      "name": "symbol",
      "outputs": [
        {
          "internalType": "string",
          "name": "",
          "type": "string"
        }
      ],
      "stateMutability": "view",
      "type": "function"
    },
    {
      "inputs": [
        {
          "internalType": "uint256",
          "name": "index",
          "type": "uint256"
        }
      ],
      "name": "tokenByIndex",
      "outputs": [
        {
          "internalType": "uint256",
          "name": "",
          "type": "uint256"
        }
      ],
      "stateMutability": "view",
      "type": "function"
    },
    {
      "inputs": [
        {
          "internalType": "address",
          "name": "owner",
          "type": "address"
        },
        {
          "internalType": "uint256",
          "name": "index",
          "type": "uint256"
        }
      ],
      "name": "tokenOfOwnerByIndex",
      "outputs": [
        {
          "internalType": "uint256",
          "name": "",
          "type": "uint256"
        }
      ],
      "stateMutability": "view",
      "type": "function"
    },
    {
      "inputs": [
        {
          "internalType": "uint256",
          "name": "tokenId",
          "type": "uint256"
        }
      ],
      "name": "tokenURI",
      "outputs": [
        {
          "internalType": "string",
          "name": "",
          "type": "string"
        }
      ],
      "stateMutability": "view",
      "type": "function"
    },
    {
      "inputs": [],
      "name": "totalSupply",
      "outputs": [
        {
          "internalType": "uint256",
          "name": "",
          "type": "uint256"
        }
      ],
      "stateMutability": "view",
      "type": "function"
    },
    {
      "inputs": [
        {
          "internalType": "address",
          "name": "from",
          "type": "address"
        },
        {
          "internalType": "address",
          "name": "to",
          "type": "address"
        },
        {
          "internalType": "uint256",
          "name": "tokenId",
          "type": "uint256"
        }
      ],
      "name": "transferFrom",
      "outputs": [],
      "stateMutability": "nonpayable",
      "type": "function"
    },
    {
      "stateMutability": "payable",
      "type": "receive"
    }
  ],
  "bytecode": "0x60a060405234801561000f575f5ffd5b506040518060400160405280600f81526020016e12da58dac8151a194813585c9ad95d608a1b815250604051806040016040528060038152602001624b544d60e81b815250815f90816100629190610113565b50600161006f8282610113565b505033608052506101cd565b634e487b7160e01b5f52604160045260245ffd5b600181811c908216806100a357607f821691505b6020821081036100c157634e487b7160e01b5f52602260045260245ffd5b50919050565b601f82111561010e57805f5260205f20601f840160051c810160208510156100ec5750805b601f840160051c820191505b8181101561010b575f81556001016100f8565b50505b505050565b81516001600160401b0381111561012c5761012c61007b565b6101408161013a845461008f565b846100c7565b6020601f821160018114610172575f831561015b5750848201515b5f19600385901b1c1916600184901b17845561010b565b5f84815260208120601f198516915b828110156101a15787850151825560209485019460019092019101610181565b50848210156101be57868401515f19600387901b60f8161c191681555b50505050600190811b01905550565b608051611ec06101ec5f395f81816103670152610b5a0152611ec05ff3fe608060405260043610610122575f3560e01c80636352211e1161009f578063a22cb46511610063578063a22cb465146103ed578063a656cb3d1461040c578063b88d4fde1461042b578063c87b56dd1461044a578063e985e9c5146104695761017e565b80636352211e1461033757806365d65e861461035657806370a082311461038957806395d89b41146103a8578063a0c84834146103bc5761017e565b806323b872dd116100e657806323b872dd1461029c5780632f745c59146102bb57806342842e0e146102da57806342966c68146102f95780634f6ccce7146103185761017e565b806301ffc9a7146101d157806306fdde0314610205578063081812fc14610226578063095ea7b31461025d57806318160ddd1461027e5761017e565b3661017e5760405162461bcd60e51b815260206004820152602160248201527f47616d6553636f72654e46543a20646f6573206e6f74206163636570742045546044820152600960fb1b60648201526084015b60405180910390fd5b60405162461bcd60e51b815260206004820152602260248201527f47616d6553636f72654e46543a2066616c6c6261636b206e6f7420616c6c6f77604482015261195960f21b6064820152608401610175565b3480156101dc575f5ffd5b506101f06101eb36600461188f565b610488565b60405190151581526020015b60405180910390f35b348015610210575f5ffd5b50610219610498565b6040516101fc91906118d8565b348015610231575f5ffd5b506102456102403660046118ea565b610527565b6040516001600160a01b0390911681526020016101fc565b348015610268575f5ffd5b5061027c61027736600461191c565b61054e565b005b348015610289575f5ffd5b50600b545b6040519081526020016101fc565b3480156102a7575f5ffd5b5061027c6102b6366004611944565b61055d565b3480156102c6575f5ffd5b5061028e6102d536600461191c565b6105e6565b3480156102e5575f5ffd5b5061027c6102f4366004611944565b610649565b348015610304575f5ffd5b5061027c6103133660046118ea565b610668565b348015610323575f5ffd5b5061028e6103323660046118ea565b610673565b348015610342575f5ffd5b506102456103513660046118ea565b6106c8565b348015610361575f5ffd5b506102457f000000000000000000000000000000000000000000000000000000000000000081565b348015610394575f5ffd5b5061028e6103a336600461197e565b6106d2565b3480156103b3575f5ffd5b50610219610717565b3480156103c7575f5ffd5b506103db6103d63660046118ea565b610726565b6040516101fc96959493929190611997565b3480156103f8575f5ffd5b5061027c6104073660046119dc565b6107eb565b348015610417575f5ffd5b5061028e610426366004611abe565b6107f6565b348015610436575f5ffd5b5061027c610445366004611b59565b61097c565b348015610455575f5ffd5b506102196104643660046118ea565b610994565b348015610474575f5ffd5b506101f0610483366004611bbd565b61099f565b5f610492826109cc565b92915050565b60605f80546104a690611bee565b80601f01602080910402602001604051908101604052809291908181526020018280546104d290611bee565b801561051d5780601f106104f45761010080835404028352916020019161051d565b820191905f5260205f20905b81548152906001019060200180831161050057829003601f168201915b5050505050905090565b5f610531826109f0565b505f828152600460205260409020546001600160a01b0316610492565b610559828233610a28565b5050565b6001600160a01b03821661058657604051633250574960e11b81525f6004820152602401610175565b5f610592838333610a35565b9050836001600160a01b0316816001600160a01b0316146105e0576040516364283d7b60e01b81526001600160a01b0380861660048301526024820184905282166044820152606401610175565b50505050565b5f6105f0836106d2565b82106106215760405163295f44f760e21b81526001600160a01b038416600482015260248101839052604401610175565b506001600160a01b03919091165f908152600660209081526040808320938352929052205490565b61066383838360405180602001604052805f81525061097c565b505050565b6105595f8233610a35565b5f61067d600b5490565b82106106a55760405163295f44f760e21b81525f600482015260248101839052604401610175565b600882815481106106b8576106b8611c26565b905f5260205f2001549050919050565b5f610492826109f0565b5f6001600160a01b0382166106fc576040516322718ad960e21b81525f6004820152602401610175565b506001600160a01b03165f9081526003602052604090205490565b6060600180546104a690611bee565b600d6020525f908152604090208054600182015460028301546003840154600485018054949593949293919261075b90611bee565b80601f016020809104026020016040519081016040528092919081815260200182805461078790611bee565b80156107d25780601f106107a9576101008083540402835291602001916107d2565b820191905f5260205f20905b8154815290600101906020018083116107b557829003601f168201915b505050600590930154919250506001600160a01b031686565b610559338383610a49565b5f5f861161085c5760405162461bcd60e51b815260206004820152602d60248201527f47616d6553636f72654e46543a2073636f7265206d757374206265206772656160448201526c746572207468616e207a65726f60981b6064820152608401610175565b600b80545f918261086c83611c4e565b9091555090503361087e848a83610ae7565b610888828a610c38565b6108928183610c87565b6040805160c08101825289815260208082018a81528284018a8152606084018a8152608085018a81526001600160a01b03881660a08701525f898152600d90955295909320845181559151600183015551600282015590516003820155915190919060048201906109039082611caa565b5060a09190910151600590910180546001600160a01b0319166001600160a01b039283161790556040519082169083907f9cc5e8a9387ad4bbf6f7ee4537e325b8a16fad3b7a0c0b95af015759e6ddf39d90610968908c908c908c908c908c90611d65565b60405180910390a350979650505050505050565b61098784848461055d565b6105e03385858585610ca0565b606061049282610dc8565b6001600160a01b039182165f90815260056020908152604080832093909416825291909152205460ff1690565b5f6001600160e01b03198216632483248360e11b1480610492575061049282610ecb565b5f818152600260205260408120546001600160a01b03168061049257604051637e27328960e01b815260048101849052602401610175565b6106638383836001610eef565b5f610a41848484610ff3565b949350505050565b6001600160a01b038216610a7b57604051630b61174360e31b81526001600160a01b0383166004820152602401610175565b6001600160a01b038381165f81815260056020908152604080832094871680845294825291829020805460ff191686151590811790915591519182527f17307eab39ab6107e8899845ad3d59bd9653f200f220920489ca2b5937696c31910160405180910390a3505050565b5f468383604051602001610afd93929190611db1565b6040516020818303038152906040528051906020012090505f610b5685610b50847f19457468657265756d205369676e6564204d6573736167653a0a3332000000005f908152601c91909152603c902090565b906110be565b90507f00000000000000000000000000000000000000000000000000000000000000006001600160a01b0316816001600160a01b031614610bcd5760405162461bcd60e51b8152602060048201526011602482015270496e76616c6964207369676e617475726560781b6044820152606401610175565b5f828152600c602052604090205460ff1615610c1a5760405162461bcd60e51b815260206004820152600c60248201526b105b1c9958591e481d5cd95960a21b6044820152606401610175565b505f908152600c60205260409020805460ff19166001179055505050565b5f828152600a60205260409020610c4f8282611caa565b506040518281527ff8e1a15aba9398e019f0b49df1a4fde98ee17ae345cb5f6b5e2c27f5033e8ce79060200160405180910390a15050565b610559828260405180602001604052805f8152506110e6565b6001600160a01b0383163b15610dc157604051630a85bd0160e11b81526001600160a01b0384169063150b7a0290610ce2908890889087908790600401611de4565b6020604051808303815f875af1925050508015610d1c575060408051601f3d908101601f19168201909252610d1991810190611e20565b60015b610d83573d808015610d49576040519150601f19603f3d011682016040523d82523d5f602084013e610d4e565b606091505b5080515f03610d7b57604051633250574960e11b81526001600160a01b0385166004820152602401610175565b805160208201fd5b6001600160e01b03198116630a85bd0160e11b14610dbf57604051633250574960e11b81526001600160a01b0385166004820152602401610175565b505b5050505050565b6060610dd3826109f0565b505f828152600a602052604081208054610dec90611bee565b80601f0160208091040260200160405190810160405280929190818152602001828054610e1890611bee565b8015610e635780601f10610e3a57610100808354040283529160200191610e63565b820191905f5260205f20905b815481529060010190602001808311610e4657829003601f168201915b505050505090505f610e7f60408051602081019091525f815290565b905080515f03610e90575092915050565b815115610ec2578082604051602001610eaa929190611e3b565b60405160208183030381529060405292505050919050565b610a41846110fd565b5f6001600160e01b0319821663780e9d6360e01b148061049257506104928261116e565b8080610f0357506001600160a01b03821615155b15610fc4575f610f12846109f0565b90506001600160a01b03831615801590610f3e5750826001600160a01b0316816001600160a01b031614155b8015610f515750610f4f818461099f565b155b15610f7a5760405163a9fbf51f60e01b81526001600160a01b0384166004820152602401610175565b8115610fc25783856001600160a01b0316826001600160a01b03167f8c5be1e5ebec7d5bd14f71427d1e84f3dd0314c0f7b2291e5b200ac8c7c3b92560405160405180910390a45b505b50505f90815260046020526040902080546001600160a01b0319166001600160a01b0392909216919091179055565b5f5f6110008585856111bd565b90506001600160a01b03811661105c5761105784600880545f838152600960205260408120829055600182018355919091527ff3f7a9fe364faab93b216da50a3214154f22a0a2b415b23a84c8169e8b636ee30155565b61107f565b846001600160a01b0316816001600160a01b03161461107f5761107f81856112af565b6001600160a01b03851661109b576110968461132c565b610a41565b846001600160a01b0316816001600160a01b031614610a4157610a4185856113d3565b5f5f5f5f6110cc8686611421565b9250925092506110dc828261146a565b5090949350505050565b6110f08383611522565b610663335f858585610ca0565b6060611108826109f0565b505f61111e60408051602081019091525f815290565b90505f81511161113c5760405180602001604052805f815250611167565b8061114684611583565b604051602001611157929190611e3b565b6040516020818303038152906040525b9392505050565b5f6001600160e01b031982166380ac58cd60e01b148061119e57506001600160e01b03198216635b5e139f60e01b145b8061049257506301ffc9a760e01b6001600160e01b0319831614610492565b5f828152600260205260408120546001600160a01b03908116908316156111e9576111e9818486611613565b6001600160a01b03811615611223576112045f855f5f610eef565b6001600160a01b0381165f90815260036020526040902080545f190190555b6001600160a01b03851615611251576001600160a01b0385165f908152600360205260409020805460010190555b5f8481526002602052604080822080546001600160a01b0319166001600160a01b0389811691821790925591518793918516917fddf252ad1be2c89b69c2b068fc378daa952ba7f163c4a11628f55a4df523b3ef91a4949350505050565b5f6112b9836106d2565b5f838152600760209081526040808320546001600160a01b038816845260069092529091209192509081831461130e575f83815260208281526040808320548584528184208190558352600790915290208290555b5f938452600760209081526040808620869055938552525081205550565b6008545f9061133d90600190611e4f565b5f838152600960205260408120546008805493945090928490811061136457611364611c26565b905f5260205f2001549050806008838154811061138357611383611c26565b5f9182526020808320909101929092558281526009909152604080822084905585825281205560088054806113ba576113ba611e62565b600190038181905f5260205f20015f9055905550505050565b5f60016113df846106d2565b6113e99190611e4f565b6001600160a01b039093165f908152600660209081526040808320868452825280832085905593825260079052919091209190915550565b5f5f5f8351604103611458576020840151604085015160608601515f1a61144a88828585611677565b955095509550505050611463565b505081515f91506002905b9250925092565b5f82600381111561147d5761147d611e76565b03611486575050565b600182600381111561149a5761149a611e76565b036114b85760405163f645eedf60e01b815260040160405180910390fd5b60028260038111156114cc576114cc611e76565b036114ed5760405163fce698f760e01b815260048101829052602401610175565b600382600381111561150157611501611e76565b03610559576040516335e2f38360e21b815260048101829052602401610175565b6001600160a01b03821661154b57604051633250574960e11b81525f6004820152602401610175565b5f61155783835f610a35565b90506001600160a01b03811615610663576040516339e3563760e11b81525f6004820152602401610175565b60605f61158f8361173f565b60010190505f8167ffffffffffffffff8111156115ae576115ae611a15565b6040519080825280601f01601f1916602001820160405280156115d8576020820181803683370190505b5090508181016020015b5f19016f181899199a1a9b1b9c1cb0b131b232b360811b600a86061a8153600a85049450846115e257509392505050565b61161e838383611816565b610663576001600160a01b03831661164c57604051637e27328960e01b815260048101829052602401610175565b60405163177e802f60e01b81526001600160a01b038316600482015260248101829052604401610175565b5f80807f7fffffffffffffffffffffffffffffff5d576e7357a4501ddfe92f46681b20a08411156116b057505f91506003905082611735565b604080515f808252602082018084528a905260ff891692820192909252606081018790526080810186905260019060a0016020604051602081039080840390855afa158015611701573d5f5f3e3d5ffd5b5050604051601f1901519150506001600160a01b03811661172c57505f925060019150829050611735565b92505f91508190505b9450945094915050565b5f8072184f03e93ff9f4daa797ed6e38ed64bf6a1f0160401b831061177d5772184f03e93ff9f4daa797ed6e38ed64bf6a1f0160401b830492506040015b6d04ee2d6d415b85acef810000000083106117a9576d04ee2d6d415b85acef8100000000830492506020015b662386f26fc1000083106117c757662386f26fc10000830492506010015b6305f5e10083106117df576305f5e100830492506008015b61271083106117f357612710830492506004015b60648310611805576064830492506002015b600a83106104925760010192915050565b5f6001600160a01b03831615801590610a415750826001600160a01b0316846001600160a01b0316148061184f575061184f848461099f565b80610a415750505f908152600460205260409020546001600160a01b03908116911614919050565b6001600160e01b03198116811461188c575f5ffd5b50565b5f6020828403121561189f575f5ffd5b813561116781611877565b5f81518084528060208401602086015e5f602082860101526020601f19601f83011685010191505092915050565b602081525f61116760208301846118aa565b5f602082840312156118fa575f5ffd5b5035919050565b80356001600160a01b0381168114611917575f5ffd5b919050565b5f5f6040838503121561192d575f5ffd5b61193683611901565b946020939093013593505050565b5f5f5f60608486031215611956575f5ffd5b61195f84611901565b925061196d60208501611901565b929592945050506040919091013590565b5f6020828403121561198e575f5ffd5b61116782611901565b86815285602082015284604082015283606082015260c060808201525f6119c160c08301856118aa565b905060018060a01b03831660a0830152979650505050505050565b5f5f604083850312156119ed575f5ffd5b6119f683611901565b915060208301358015158114611a0a575f5ffd5b809150509250929050565b634e487b7160e01b5f52604160045260245ffd5b5f5f67ffffffffffffffff841115611a4357611a43611a15565b50604051601f19601f85018116603f0116810181811067ffffffffffffffff82111715611a7257611a72611a15565b604052838152905080828401851015611a89575f5ffd5b838360208301375f60208583010152509392505050565b5f82601f830112611aaf575f5ffd5b61116783833560208501611a29565b5f5f5f5f5f5f60c08789031215611ad3575f5ffd5b863567ffffffffffffffff811115611ae9575f5ffd5b8701601f81018913611af9575f5ffd5b611b0889823560208401611a29565b9650506020870135945060408701359350606087013592506080870135915060a087013567ffffffffffffffff811115611b40575f5ffd5b611b4c89828a01611aa0565b9150509295509295509295565b5f5f5f5f60808587031215611b6c575f5ffd5b611b7585611901565b9350611b8360208601611901565b925060408501359150606085013567ffffffffffffffff811115611ba5575f5ffd5b611bb187828801611aa0565b91505092959194509250565b5f5f60408385031215611bce575f5ffd5b611bd783611901565b9150611be560208401611901565b90509250929050565b600181811c90821680611c0257607f821691505b602082108103611c2057634e487b7160e01b5f52602260045260245ffd5b50919050565b634e487b7160e01b5f52603260045260245ffd5b634e487b7160e01b5f52601160045260245ffd5b5f60018201611c5f57611c5f611c3a565b5060010190565b601f82111561066357805f5260205f20601f840160051c81016020851015611c8b5750805b601f840160051c820191505b81811015610dc1575f8155600101611c97565b815167ffffffffffffffff811115611cc457611cc4611a15565b611cd881611cd28454611bee565b84611c66565b6020601f821160018114611d0a575f8315611cf35750848201515b5f19600385901b1c1916600184901b178455610dc1565b5f84815260208120601f198516915b82811015611d395787850151825560209485019460019092019101611d19565b5084821015611d5657868401515f19600387901b60f8161c191681555b50505050600190811b01905550565b85815284602082015283604082015282606082015260a060808201525f611d8f60a08301846118aa565b979650505050505050565b5f81518060208401855e5f93019283525090919050565b8381525f611dc26020830185611d9a565b60609390931b6bffffffffffffffffffffffff19168352505060140192915050565b6001600160a01b03858116825284166020820152604081018390526080606082018190525f90611e16908301846118aa565b9695505050505050565b5f60208284031215611e30575f5ffd5b815161116781611877565b5f610a41611e498386611d9a565b84611d9a565b8181038181111561049257610492611c3a565b634e487b7160e01b5f52603160045260245ffd5b634e487b7160e01b5f52602160045260245ffdfea26469706673582212204f39b9c503f7677f4e0da0bb90bc33d4f643e4167e6a05d12bf311e060196a8564736f6c634300081c0033",
  "linkReferences": {},
  "deployedLinkReferences": {},
  "immutableReferences": {
    "7452": [
      {
        "length": 32,
        "start": 871
      },
      {
        "length": 32,
        "start": 2906
      }
    ]
  },
  "inputSourceName": "project/contracts/KickTheMarket.sol",
  "buildInfoId": "solc-0_8_28-d312208ed910507390a912dd0d0b3ebbfa473f5a"
}