{
  "_format": "hh3-artifact-1",
  "contractName": "Sponsors",
  "sourceName": "contracts/Sponsors.sol",
  "abi": [
    {
      "inputs": [
        {
          "internalType": "address",
          "name": "_jackpotAddress",
          "type": "address"
        }
      ],
      "stateMutability": "nonpayable",
      "type": "constructor"
    },
    {
      "inputs": [],
      "name": "AccessControlBadConfirmation",
      "type": "error"
    },
    {
      "inputs": [
        {
          "internalType": "address",
          "name": "account",
          "type": "address"
        },
        {
          "internalType": "bytes32",
          "name": "neededRole",
          "type": "bytes32"
        }
      ],
      "name": "AccessControlUnauthorizedAccount",
      "type": "error"
    },
    {
      "inputs": [],
      "name": "ReentrancyGuardReentrantCall",
      "type": "error"
    },
    {
      "anonymous": false,
      "inputs": [
        {
          "indexed": true,
          "internalType": "uint256",
          "name": "week",
          "type": "uint256"
        },
        {
          "indexed": true,
          "internalType": "address",
          "name": "sponsor",
          "type": "address"
        },
        {
          "indexed": true,
          "internalType": "uint256",
          "name": "amount",
          "type": "uint256"
        },
        {
          "indexed": false,
          "internalType": "enum Sponsors.Tier",
          "name": "tier",
          "type": "uint8"
        },
        {
          "indexed": false,
          "internalType": "string",
          "name": "name",
          "type": "string"
        },
        {
          "indexed": false,
          "internalType": "string",
          "name": "cta",
          "type": "string"
        },
        {
          "indexed": false,
          "internalType": "string",
          "name": "description",
          "type": "string"
        },
        {
          "indexed": false,
          "internalType": "string",
          "name": "logoUrl",
          "type": "string"
        },
        {
          "indexed": false,
          "internalType": "string",
          "name": "website",
          "type": "string"
        }
      ],
      "name": "NewSponsor",
      "type": "event"
    },
    {
      "anonymous": false,
      "inputs": [
        {
          "indexed": true,
          "internalType": "bytes32",
          "name": "role",
          "type": "bytes32"
        },
        {
          "indexed": true,
          "internalType": "bytes32",
          "name": "previousAdminRole",
          "type": "bytes32"
        },
        {
          "indexed": true,
          "internalType": "bytes32",
          "name": "newAdminRole",
          "type": "bytes32"
        }
      ],
      "name": "RoleAdminChanged",
      "type": "event"
    },
    {
      "anonymous": false,
      "inputs": [
        {
          "indexed": true,
          "internalType": "bytes32",
          "name": "role",
          "type": "bytes32"
        },
        {
          "indexed": true,
          "internalType": "address",
          "name": "account",
          "type": "address"
        },
        {
          "indexed": true,
          "internalType": "address",
          "name": "sender",
          "type": "address"
        }
      ],
      "name": "RoleGranted",
      "type": "event"
    },
    {
      "anonymous": false,
      "inputs": [
        {
          "indexed": true,
          "internalType": "bytes32",
          "name": "role",
          "type": "bytes32"
        },
        {
          "indexed": true,
          "internalType": "address",
          "name": "account",
          "type": "address"
        },
        {
          "indexed": true,
          "internalType": "address",
          "name": "sender",
          "type": "address"
        }
      ],
      "name": "RoleRevoked",
      "type": "event"
    },
    {
      "stateMutability": "payable",
      "type": "fallback"
    },
    {
      "inputs": [],
      "name": "BRONZE_PRICE",
      "outputs": [
        {
          "internalType": "uint256",
          "name": "",
          "type": "uint256"
        }
      ],
      "stateMutability": "view",
      "type": "function"
    },
    {
      "inputs": [],
      "name": "BRONZE_SLOTS",
      "outputs": [
        {
          "internalType": "uint256",
          "name": "",
          "type": "uint256"
        }
      ],
      "stateMutability": "view",
      "type": "function"
    },
    {
      "inputs": [],
      "name": "DEFAULT_ADMIN_ROLE",
      "outputs": [
        {
          "internalType": "bytes32",
          "name": "",
          "type": "bytes32"
        }
      ],
      "stateMutability": "view",
      "type": "function"
    },
    {
      "inputs": [],
      "name": "GOLD_PRICE",
      "outputs": [
        {
          "internalType": "uint256",
          "name": "",
          "type": "uint256"
        }
      ],
      "stateMutability": "view",
      "type": "function"
    },
    {
      "inputs": [],
      "name": "GOLD_SLOTS",
      "outputs": [
        {
          "internalType": "uint256",
          "name": "",
          "type": "uint256"
        }
      ],
      "stateMutability": "view",
      "type": "function"
    },
    {
      "inputs": [],
      "name": "JACKPOT_ADDRESS",
      "outputs": [
        {
          "internalType": "address",
          "name": "",
          "type": "address"
        }
      ],
      "stateMutability": "view",
      "type": "function"
    },
    {
      "inputs": [],
      "name": "JACKPOT_GAME_ROLE",
      "outputs": [
        {
          "internalType": "bytes32",
          "name": "",
          "type": "bytes32"
        }
      ],
      "stateMutability": "view",
      "type": "function"
    },
    {
      "inputs": [],
      "name": "SILVER_PRICE",
      "outputs": [
        {
          "internalType": "uint256",
          "name": "",
          "type": "uint256"
        }
      ],
      "stateMutability": "view",
      "type": "function"
    },
    {
      "inputs": [],
      "name": "SILVER_SLOTS",
      "outputs": [
        {
          "internalType": "uint256",
          "name": "",
          "type": "uint256"
        }
      ],
      "stateMutability": "view",
      "type": "function"
    },
    {
      "inputs": [],
      "name": "TIMESTAMP_ZERO",
      "outputs": [
        {
          "internalType": "uint256",
          "name": "",
          "type": "uint256"
        }
      ],
      "stateMutability": "view",
      "type": "function"
    },
    {
      "inputs": [
        {
          "internalType": "uint256",
          "name": "week",
          "type": "uint256"
        }
      ],
      "name": "adsOfWeek",
      "outputs": [
        {
          "components": [
            {
              "internalType": "address",
              "name": "sponsor",
              "type": "address"
            },
            {
              "internalType": "enum Sponsors.Tier",
              "name": "tier",
              "type": "uint8"
            },
            {
              "internalType": "string",
              "name": "name",
              "type": "string"
            },
            {
              "internalType": "string",
              "name": "cta",
              "type": "string"
            },
            {
              "internalType": "string",
              "name": "description",
              "type": "string"
            },
            {
              "internalType": "string",
              "name": "website",
              "type": "string"
            },
            {
              "internalType": "string",
              "name": "logoUrl",
              "type": "string"
            },
            {
              "internalType": "uint256",
              "name": "amountDonated",
              "type": "uint256"
            },
            {
              "internalType": "uint256",
              "name": "week",
              "type": "uint256"
            }
          ],
          "internalType": "struct Sponsors.Ad[6]",
          "name": "",
          "type": "tuple[6]"
        }
      ],
      "stateMutability": "view",
      "type": "function"
    },
    {
      "inputs": [],
      "name": "currentAds",
      "outputs": [
        {
          "components": [
            {
              "internalType": "address",
              "name": "sponsor",
              "type": "address"
            },
            {
              "internalType": "enum Sponsors.Tier",
              "name": "tier",
              "type": "uint8"
            },
            {
              "internalType": "string",
              "name": "name",
              "type": "string"
            },
            {
              "internalType": "string",
              "name": "cta",
              "type": "string"
            },
            {
              "internalType": "string",
              "name": "description",
              "type": "string"
            },
            {
              "internalType": "string",
              "name": "website",
              "type": "string"
            },
            {
              "internalType": "string",
              "name": "logoUrl",
              "type": "string"
            },
            {
              "internalType": "uint256",
              "name": "amountDonated",
              "type": "uint256"
            },
            {
              "internalType": "uint256",
              "name": "week",
              "type": "uint256"
            }
          ],
          "internalType": "struct Sponsors.Ad[6]",
          "name": "",
          "type": "tuple[6]"
        }
      ],
      "stateMutability": "view",
      "type": "function"
    },
    {
      "inputs": [],
      "name": "currentWeek",
      "outputs": [
        {
          "internalType": "uint256",
          "name": "",
          "type": "uint256"
        }
      ],
      "stateMutability": "view",
      "type": "function"
    },
    {
      "inputs": [
        {
          "internalType": "bytes32",
          "name": "role",
          "type": "bytes32"
        }
      ],
      "name": "getRoleAdmin",
      "outputs": [
        {
          "internalType": "bytes32",
          "name": "",
          "type": "bytes32"
        }
      ],
      "stateMutability": "view",
      "type": "function"
    },
    {
      "inputs": [
        {
          "internalType": "bytes32",
          "name": "role",
          "type": "bytes32"
        },
        {
          "internalType": "address",
          "name": "account",
          "type": "address"
        }
      ],
      "name": "grantRole",
      "outputs": [],
      "stateMutability": "nonpayable",
      "type": "function"
    },
    {
      "inputs": [
        {
          "internalType": "bytes32",
          "name": "role",
          "type": "bytes32"
        },
        {
          "internalType": "address",
          "name": "account",
          "type": "address"
        }
      ],
      "name": "hasRole",
      "outputs": [
        {
          "internalType": "bool",
          "name": "",
          "type": "bool"
        }
      ],
      "stateMutability": "view",
      "type": "function"
    },
    {
      "inputs": [
        {
          "internalType": "bytes32",
          "name": "role",
          "type": "bytes32"
        },
        {
          "internalType": "address",
          "name": "callerConfirmation",
          "type": "address"
        }
      ],
      "name": "renounceRole",
      "outputs": [],
      "stateMutability": "nonpayable",
      "type": "function"
    },
    {
      "inputs": [
        {
          "internalType": "bytes32",
          "name": "role",
          "type": "bytes32"
        },
        {
          "internalType": "address",
          "name": "account",
          "type": "address"
        }
      ],
      "name": "revokeRole",
      "outputs": [],
      "stateMutability": "nonpayable",
      "type": "function"
    },
    {
      "inputs": [
        {
          "internalType": "uint256",
          "name": "_week",
          "type": "uint256"
        },
        {
          "internalType": "enum Sponsors.Tier",
          "name": "_tier",
          "type": "uint8"
        },
        {
          "internalType": "string",
          "name": "_name",
          "type": "string"
        },
        {
          "internalType": "string",
          "name": "_cta",
          "type": "string"
        },
        {
          "internalType": "string",
          "name": "_description",
          "type": "string"
        },
        {
          "internalType": "string",
          "name": "_website",
          "type": "string"
        },
        {
          "internalType": "string",
          "name": "_logoUrl",
          "type": "string"
        }
      ],
      "name": "sponsorize",
      "outputs": [],
      "stateMutability": "payable",
      "type": "function"
    },
    {
      "inputs": [
        {
          "internalType": "bytes4",
          "name": "interfaceId",
          "type": "bytes4"
        }
      ],
      "name": "supportsInterface",
      "outputs": [
        {
          "internalType": "bool",
          "name": "",
          "type": "bool"
        }
      ],
      "stateMutability": "view",
      "type": "function"
    },
    {
      "inputs": [
        {
          "internalType": "enum Sponsors.Tier",
          "name": "_tier",
          "type": "uint8"
        }
      ],
      "name": "tierPrice",
      "outputs": [
        {
          "internalType": "uint256",
          "name": "",
          "type": "uint256"
        }
      ],
      "stateMutability": "pure",
      "type": "function"
    },
    {
      "inputs": [
        {
          "internalType": "uint256",
          "name": "",
          "type": "uint256"
        },
        {
          "internalType": "uint256",
          "name": "",
          "type": "uint256"
        }
      ],
      "name": "weeklyAds",
      "outputs": [
        {
          "internalType": "address",
          "name": "sponsor",
          "type": "address"
        },
        {
          "internalType": "enum Sponsors.Tier",
          "name": "tier",
          "type": "uint8"
        },
        {
          "internalType": "string",
          "name": "name",
          "type": "string"
        },
        {
          "internalType": "string",
          "name": "cta",
          "type": "string"
        },
        {
          "internalType": "string",
          "name": "description",
          "type": "string"
        },
        {
          "internalType": "string",
          "name": "website",
          "type": "string"
        },
        {
          "internalType": "string",
          "name": "logoUrl",
          "type": "string"
        },
        {
          "internalType": "uint256",
          "name": "amountDonated",
          "type": "uint256"
        },
        {
          "internalType": "uint256",
          "name": "week",
          "type": "uint256"
        }
      ],
      "stateMutability": "view",
      "type": "function"
    },
    {
      "stateMutability": "payable",
      "type": "receive"
    }
  ],
  "bytecode": "0x60c03461009357601f61191e38819003918201601f19168301916001600160401b038311848410176100975780849260209460405283398101031261009357516001600160a01b038116810361009357600180554260a052608052610063336100ab565b506040516117c9908161013582396080518181816103390152610aa1015260a0518181816101ab01526114c70152f35b5f80fd5b634e487b7160e01b5f52604160045260245ffd5b6001600160a01b0381165f9081525f5160206118fe5f395f51905f52602052604090205460ff1661012f576001600160a01b03165f8181525f5160206118fe5f395f51905f5260205260408120805460ff191660011790553391907f2f8788117e7eff1d82e926ec794901d17c78024a50270940304540a733656f0d8180a4600190565b505f9056fe6080806040526004361015610096575b5036156100525760405162461bcd60e51b815260206004820152601460248201527311985b1b189858dac81b9bdd08185b1b1bddd95960621b6044820152606490fd5b606460405162461bcd60e51b815260206004820152602060248201527f506c656173652c2063616c6c2053706f6e736f72697a652066756e6374696f6e6044820152fd5b5f3560e01c90816301b9691b146111cf5750806301ffc9a71461117957806306575c891461115f5780631cde390114611144578063248a9ca31461111a57806329cc35b0146106cf5780632a6c7fcf146105da5780632f2ff15d146105ab57806336568abe146105755780633ff89f1e146104615780635dbc6d6c146104425780637b738e2b146104275780638281b3ac146104085780638b542526146103d857806391d148541461039d5780639396907514610382578063a217fddf14610368578063aa0c284114610324578063c0fbed0214610305578063d547741f146102cf578063de6fee07146101d25763dede511f14610194575f61000f565b346101ce575f3660031901126101ce5760206040517f00000000000000000000000000000000000000000000000000000000000000008152f35b5f80fd5b346101ce575f3660031901126101ce576101ea611575565b506101f36114c5565b5f52600260205260405f206040519061020b826113e9565b5f825b6006821061022857604051806102248682611265565b0390f35b6008602060019260405161023b816113cd565b61025860ff8854878060a01b038116845260a01c168483016114f8565b610263858801611425565b604082015261027460028801611425565b606082015261028560038801611425565b608082015261029660048801611425565b60a08201526102a760058801611425565b60c0820152600687015460e0820152600787015461010082015281520193019101909161020e565b346101ce576103036102e036611348565b906102fe6102f9825f525f602052600160405f20015490565b611653565b611713565b005b346101ce575f3660031901126101ce5760206040516461c9f368008152f35b346101ce575f3660031901126101ce576040517f00000000000000000000000000000000000000000000000000000000000000006001600160a01b03168152602090f35b346101ce575f3660031901126101ce5760206040515f8152f35b346101ce575f3660031901126101ce57602060405160028152f35b346101ce576103ab36611348565b905f525f60205260405f209060018060a01b03165f52602052602060ff60405f2054166040519015158152f35b346101ce5760203660031901126101ce5760043560038110156101ce576104006020916115e4565b604051908152f35b346101ce575f3660031901126101ce57602060405164e8d4a510008152f35b346101ce575f3660031901126101ce57602060405160018152f35b346101ce575f3660031901126101ce57602060405164a0a73474008152f35b346101ce5760403660031901126101ce576024356004355f52600260205260405f209060068110156101ce576104969161136e565b5080546104a560018301611425565b916104b260028201611425565b6104be60038301611425565b6104ca60048401611425565b6104d660058501611425565b916006850154946007015493604051978897600160a01b6001900381168952602089019060a01c60ff169061050a91611234565b604088016101209052610120880161052191611241565b878103606089015261053291611241565b868103608088015261054391611241565b85810360a087015261055491611241565b84810360c086015261056591611241565b9160e08401526101008301520390f35b346101ce5761058336611348565b336001600160a01b0382160361059c5761030391611713565b63334bd91960e11b5f5260045ffd5b346101ce576103036105bc36611348565b906105d56102f9825f525f602052600160405f20015490565b61168b565b346101ce5760203660031901126101ce576105f3611575565b506004355f52600260205260405f206040519061060f826113e9565b5f825b6006821061062857604051806102248682611265565b6008602060019260405161063b816113cd565b61065860ff8854878060a01b038116845260a01c168483016114f8565b610663858801611425565b604082015261067460028801611425565b606082015261068560038801611425565b608082015261069660048801611425565b60a08201526106a760058801611425565b60c0820152600687015460e08201526007870154610100820152815201930191019091610612565b60e03660031901126101ce5760043560243560038110156101ce576044356001600160401b0381116101ce57610709903690600401611207565b6064939193356001600160401b0381116101ce5761072b903690600401611207565b9390946084356001600160401b0381116101ce5761074d903690600401611207565b959060a4356001600160401b0381116101ce5761076e903690600401611207565b97909860c4356001600160401b0381116101ce57610790903690600401611207565b94909560026001541461110b5760026001556107ab886115e4565b34106110c6575f8089611011578b5f5260026020526107cd8260405f2061136e565b50546001600160a01b031615611009575b15610fb1578a8a918a8f8f898b8e8e94604051996107fb8b6113cd565b338b5260208b019761080d90896114f8565b36610818918d61151f565b9260408b019384528d8d369061082d9261151f565b9460608c0195865236906108409261151f565b9460808b0195865236906108539261151f565b9460a08a0195865236906108669261151f565b9460c0890195865260e08901963488526101008a0198808a525f52600260205260405f20906108949161136e565b999099610f9e575189546001600160a01b031981166001600160a01b03929092169182178b5591516003811015610f8a576001600160a81b03199092161760a09190911b60ff60a01b1617885551805160018901916001600160401b038211610c7e5781906109038454611395565b601f8111610f3a575b50602090601f8311600114610ed7575f92610ecc575b50508160011b915f199060031b1c19161790555b51805160028801916001600160401b038211610c7e5781906109588454611395565b601f8111610e7c575b50602090601f8311600114610e19575f92610e0e575b50508160011b915f199060031b1c19161790555b51805160038701916001600160401b038211610c7e5781906109ad8454611395565b601f8111610dbe575b50602090601f8311600114610d5b575f92610d50575b50508160011b915f199060031b1c19161790555b51805160048601916001600160401b038211610c7e578190610a028454611395565b601f8111610d00575b50602090601f8311600114610c9d575f92610c92575b50508160011b915f199060031b1c19161790555b51805160058501916001600160401b038211610c7e57610a558354611395565b601f8111610c39575b50602090601f8311600114610bd157600795949392915f9183610bc6575b50508160011b915f199060031b1c19161790555b516006840155519101555f808080347f00000000000000000000000000000000000000000000000000000000000000005af13d15610bc1573d610ad281611504565b90610ae06040519283611404565b81525f60203d92013e5b15610b8a5760405198610afe8a809a611234565b6020890160c0905260c0890190610b1492611555565b908782036040890152610b2692611555565b908582036060870152610b3892611555565b908382036080850152610b4a92611555565b9481860360a083015234953395610b6092611555565b037facc6e23fd2d1d61df910ae3dc70309480262a063d355e946b358183ee258321791a460018055005b60405162461bcd60e51b815260206004820152600f60248201526e151c985b9cd9995c8819985a5b1959608a1b6044820152606490fd5b610aea565b015190505f80610a7c565b90601f19831691845f52815f20925f5b818110610c2157509160019391856007999897969410610c09575b505050811b019055610a90565b01515f1960f88460031b161c191690555f8080610bfc565b92936020600181928786015181550195019301610be1565b835f5260205f20601f840160051c81019160208510610c74575b601f0160051c01905b818110610c695750610a5e565b5f8155600101610c5c565b9091508190610c53565b634e487b7160e01b5f52604160045260245ffd5b015190505f80610a21565b5f8581528281209350601f198516905b818110610ce85750908460019594939210610cd0575b505050811b019055610a35565b01515f1960f88460031b161c191690555f8080610cc3565b92936020600181928786015181550195019301610cad565b909150835f5260205f20601f840160051c81019160208510610d46575b90601f859493920160051c01905b818110610d385750610a0b565b5f8155849350600101610d2b565b9091508190610d1d565b015190505f806109cc565b5f8581528281209350601f198516905b818110610da65750908460019594939210610d8e575b505050811b0190556109e0565b01515f1960f88460031b161c191690555f8080610d81565b92936020600181928786015181550195019301610d6b565b909150835f5260205f20601f840160051c81019160208510610e04575b90601f859493920160051c01905b818110610df657506109b6565b5f8155849350600101610de9565b9091508190610ddb565b015190505f80610977565b5f8581528281209350601f198516905b818110610e645750908460019594939210610e4c575b505050811b01905561098b565b01515f1960f88460031b161c191690555f8080610e3f565b92936020600181928786015181550195019301610e29565b909150835f5260205f20601f840160051c81019160208510610ec2575b90601f859493920160051c01905b818110610eb45750610961565b5f8155849350600101610ea7565b9091508190610e99565b015190505f80610922565b5f8581528281209350601f198516905b818110610f225750908460019594939210610f0a575b505050811b019055610936565b01515f1960f88460031b161c191690555f8080610efd565b92936020600181928786015181550195019301610ee7565b909150835f5260205f20601f840160051c81019160208510610f80575b90601f859493920160051c01905b818110610f72575061090c565b5f8155849350600101610f65565b9091508190610f57565b634e487b7160e01b5f52602160045260245ffd5b634e487b7160e01b5f525f60045260245ffd5b60405162461bcd60e51b815260206004820152602a60248201527f4e6f20617661696c61626c6520736c6f747320666f72207468697320746965726044820152692074686973207765656b60b01b6064820152608490fd5b5060016107de565b60018a036110805760015b600281111561102c575b506107de565b8c5f5260026020526110418160405f2061136e565b50546001600160a01b031615611075575f1981146110615760010161101c565b634e487b7160e01b5f52601160045260245ffd5b91505060018e611026565b60028a036107de5760035b6006811061109957506107de565b8c5f5260026020526110ae8160405f2061136e565b50546001600160a01b0316156110755760010161108b565b60405162461bcd60e51b815260206004820152601760248201527f4e6f7420656e6f7567682045544820666f7220746965720000000000000000006044820152606490fd5b633ee5aeb560e01b5f5260045ffd5b346101ce5760203660031901126101ce5760206104006004355f525f602052600160405f20015490565b346101ce575f3660031901126101ce57602060405160038152f35b346101ce575f3660031901126101ce5760206104006114c5565b346101ce5760203660031901126101ce5760043563ffffffff60e01b81168091036101ce57602090637965db0b60e01b81149081156111be575b506040519015158152f35b6301ffc9a760e01b149050826111b3565b346101ce575f3660031901126101ce57807f5b8b382ad6d95db02987b837e3fdc8ec0a744175ef19c16713bfc6a4e3bab62560209252f35b9181601f840112156101ce578235916001600160401b0383116101ce57602083818601950101116101ce57565b906003821015610f8a5752565b805180835260209291819084018484015e5f828201840152601f01601f1916010190565b60208101602082529060e0810192915f905b60068210611286575050505090565b90919293602080600192601f19878203018552875190848060a01b0382511681526112b78383015184830190611234565b6101008061132a6113186113066112f46112e2604089015161012060408a0152610120890190611241565b606089015188820360608a0152611241565b60808801518782036080890152611241565b60a087015186820360a0880152611241565b60c086015185820360c0870152611241565b9360e081015160e08501520151910152960192019201909291611277565b60409060031901126101ce57600435906024356001600160a01b03811681036101ce5790565b9060068110156113815760031b01905f90565b634e487b7160e01b5f52603260045260245ffd5b90600182811c921680156113c3575b60208310146113af57565b634e487b7160e01b5f52602260045260245ffd5b91607f16916113a4565b61012081019081106001600160401b03821117610c7e57604052565b60c081019081106001600160401b03821117610c7e57604052565b90601f801991011681019081106001600160401b03821117610c7e57604052565b9060405191825f82549261143884611395565b80845293600181169081156114a3575060011461145f575b5061145d92500383611404565b565b90505f9291925260205f20905f915b81831061148757505090602061145d928201015f611450565b602091935080600191548385890101520191019091849261146e565b90506020925061145d94915060ff191682840152151560051b8201015f611450565b7f000000000000000000000000000000000000000000000000000000000000000042034281116110615762093a80900490565b6003821015610f8a5752565b6001600160401b038111610c7e57601f01601f191660200190565b92919261152b82611504565b916115396040519384611404565b8294818452818301116101ce578281602093845f960137010152565b908060209392818452848401375f828201840152601f01601f1916010190565b6040519060c06115858184611404565b825f5b82811061159457505050565b6020906040516115a3816113cd565b5f81525f838201526060604082015260608082015260606080820152606060a0820152606060c08201525f60e08201525f6101008201528184015201611588565b6003811015610f8a578015611649576001811461163f576002146116365760405162461bcd60e51b815260206004820152600c60248201526b24b73b30b634b2102a34b2b960a11b6044820152606490fd5b6461c9f3680090565b5064a0a734740090565b5064e8d4a5100090565b5f8181526020818152604080832033845290915290205460ff16156116755750565b63e2517d3f60e01b5f523360045260245260445ffd5b5f818152602081815260408083206001600160a01b038616845290915290205460ff1661170d575f818152602081815260408083206001600160a01b0395909516808452949091528120805460ff19166001179055339291907f2f8788117e7eff1d82e926ec794901d17c78024a50270940304540a733656f0d9080a4600190565b50505f90565b5f818152602081815260408083206001600160a01b038616845290915290205460ff161561170d575f818152602081815260408083206001600160a01b0395909516808452949091528120805460ff19169055339291907ff6391f5c32d9c69d2a47ea670b442974b53935d1edc7fd64eb21e047a839171b9080a460019056fea26469706673582212204340f9ae27cb9f854dcbc1144577b44c3fca4fd8dde74a2548d479d6e4a8d4aa64736f6c634300081c0033ad3228b676f7d3cd4284a5443f17f1962b36e491b30a40b2405849e597ba5fb5",
  "linkReferences": {},
  "deployedLinkReferences": {},
  "immutableReferences": {
    "535": [
      {
        "length": 32,
        "start": 825
      },
      {
        "length": 32,
        "start": 2721
      }
    ],
    "539": [
      {
        "length": 32,
        "start": 427
      },
      {
        "length": 32,
        "start": 5319
      }
    ]
  },
  "inputSourceName": "project/contracts/Sponsors.sol",
  "buildInfoId": "solc-0_8_28-ff9a660515ffee1b2b0a7c90fca03b9b41297e60"
}